{
  "contractName": "Payroll",
  "abi": [
    {
      "constant": true,
      "inputs": [],
      "name": "totalSalary",
      "outputs": [
        {
          "name": "",
          "type": "uint256"
        }
      ],
      "payable": false,
      "stateMutability": "view",
      "type": "function"
    },
    {
      "constant": true,
      "inputs": [],
      "name": "owner",
      "outputs": [
        {
          "name": "",
          "type": "address"
        }
      ],
      "payable": false,
      "stateMutability": "view",
      "type": "function"
    },
    {
      "constant": true,
      "inputs": [
        {
          "name": "",
          "type": "address"
        }
      ],
      "name": "employees",
      "outputs": [
        {
          "name": "id",
          "type": "address"
        },
        {
          "name": "salary",
          "type": "uint256"
        },
        {
          "name": "lastPayday",
          "type": "uint256"
        }
      ],
      "payable": false,
      "stateMutability": "view",
      "type": "function"
    },
    {
      "inputs": [],
      "payable": false,
      "stateMutability": "nonpayable",
      "type": "constructor"
    },
    {
      "constant": false,
      "inputs": [
        {
          "name": "employeeId",
          "type": "address"
        },
        {
          "name": "salary",
          "type": "uint256"
        }
      ],
      "name": "addEmployee",
      "outputs": [],
      "payable": false,
      "stateMutability": "nonpayable",
      "type": "function"
    },
    {
      "constant": false,
      "inputs": [
        {
          "name": "employeeId",
          "type": "address"
        }
      ],
      "name": "removeEmployee",
      "outputs": [],
      "payable": false,
      "stateMutability": "nonpayable",
      "type": "function"
    },
    {
      "constant": false,
      "inputs": [
        {
          "name": "employeeId",
          "type": "address"
        },
        {
          "name": "salary",
          "type": "uint256"
        }
      ],
      "name": "updateEmployee",
      "outputs": [],
      "payable": false,
      "stateMutability": "nonpayable",
      "type": "function"
    },
    {
      "constant": false,
      "inputs": [
        {
          "name": "employeeId",
          "type": "address"
        },
        {
          "name": "newAddress",
          "type": "address"
        }
      ],
      "name": "changePaymentAddress",
      "outputs": [],
      "payable": false,
      "stateMutability": "nonpayable",
      "type": "function"
    },
    {
      "constant": false,
      "inputs": [],
      "name": "addFund",
      "outputs": [
        {
          "name": "",
          "type": "uint256"
        }
      ],
      "payable": true,
      "stateMutability": "payable",
      "type": "function"
    },
    {
      "constant": false,
      "inputs": [],
      "name": "calculateRunway",
      "outputs": [
        {
          "name": "",
          "type": "uint256"
        }
      ],
      "payable": false,
      "stateMutability": "nonpayable",
      "type": "function"
    },
    {
      "constant": false,
      "inputs": [],
      "name": "hasEnoughFund",
      "outputs": [
        {
          "name": "",
          "type": "bool"
        }
      ],
      "payable": false,
      "stateMutability": "nonpayable",
      "type": "function"
    },
    {
      "constant": false,
      "inputs": [],
      "name": "getPaid",
      "outputs": [],
      "payable": false,
      "stateMutability": "nonpayable",
      "type": "function"
    }
  ],
  "bytecode": "0x6060604052341561000f57600080fd5b336000806101000a81548173ffffffffffffffffffffffffffffffffffffffff021916908373ffffffffffffffffffffffffffffffffffffffff16021790555061120b8061005e6000396000f3006060604052600436106100af576000357c0100000000000000000000000000000000000000000000000000000000900463ffffffff16806323fed09e146100b45780632e46eb1d146100e15780634ec195121461010a5780635e91d8ec146101335780638da5cb5b14610175578063a2f09dfa146101ca578063bc456c42146101e8578063cf41d6f814610240578063d067894714610255578063d108177a146102dc578063e7fd9a1314610315575b600080fd5b34156100bf57600080fd5b6100c7610357565b604051808215151515815260200191505060405180910390f35b34156100ec57600080fd5b6100f4610368565b6040518082815260200191505060405180910390f35b341561011557600080fd5b61011d61036e565b6040518082815260200191505060405180910390f35b341561013e57600080fd5b610173600480803573ffffffffffffffffffffffffffffffffffffffff169060200190919080359060200190919050506103a1565b005b341561018057600080fd5b610188610696565b604051808273ffffffffffffffffffffffffffffffffffffffff1673ffffffffffffffffffffffffffffffffffffffff16815260200191505060405180910390f35b6101d26106bb565b6040518082815260200191505060405180910390f35b34156101f357600080fd5b61023e600480803573ffffffffffffffffffffffffffffffffffffffff1690602001909190803573ffffffffffffffffffffffffffffffffffffffff169060200190919050506106da565b005b341561024b57600080fd5b610253610a24565b005b341561026057600080fd5b61028c600480803573ffffffffffffffffffffffffffffffffffffffff16906020019091905050610bb2565b604051808473ffffffffffffffffffffffffffffffffffffffff1673ffffffffffffffffffffffffffffffffffffffff168152602001838152602001828152602001935050505060405180910390f35b34156102e757600080fd5b610313600480803573ffffffffffffffffffffffffffffffffffffffff16906020019091905050610bfc565b005b341561032057600080fd5b610355600480803573ffffffffffffffffffffffffffffffffffffffff16906020019091908035906020019091905050610e8c565b005b60008061036261036e565b11905090565b60025481565b600061039c6002543073ffffffffffffffffffffffffffffffffffffffff163161109890919063ffffffff16565b905090565b60008060009054906101000a900473ffffffffffffffffffffffffffffffffffffffff1673ffffffffffffffffffffffffffffffffffffffff163373ffffffffffffffffffffffffffffffffffffffff161415156103fe57600080fd5b826000600160008373ffffffffffffffffffffffffffffffffffffffff1673ffffffffffffffffffffffffffffffffffffffff168152602001908152602001600020905060008160000160009054906101000a900473ffffffffffffffffffffffffffffffffffffffff1673ffffffffffffffffffffffffffffffffffffffff161415151561048c57600080fd5b610549600160008773ffffffffffffffffffffffffffffffffffffffff1673ffffffffffffffffffffffffffffffffffffffff168152602001908152602001600020606060405190810160405290816000820160009054906101000a900473ffffffffffffffffffffffffffffffffffffffff1673ffffffffffffffffffffffffffffffffffffffff1673ffffffffffffffffffffffffffffffffffffffff168152602001600182015481526020016002820154815250506110b3565b925061057a610569670de0b6b3a7640000866110fc90919063ffffffff16565b60025461113790919063ffffffff16565b6002819055506105d7600160008773ffffffffffffffffffffffffffffffffffffffff1673ffffffffffffffffffffffffffffffffffffffff1681526020019081526020016000206001015460025461115590919063ffffffff16565b6002819055506105f8670de0b6b3a7640000856110fc90919063ffffffff16565b600160008773ffffffffffffffffffffffffffffffffffffffff1673ffffffffffffffffffffffffffffffffffffffff1681526020019081526020016000206001018190555042600160008773ffffffffffffffffffffffffffffffffffffffff1673ffffffffffffffffffffffffffffffffffffffff1681526020019081526020016000206002018190555061068f858461116e565b5050505050565b6000809054906101000a900473ffffffffffffffffffffffffffffffffffffffff1681565b60003073ffffffffffffffffffffffffffffffffffffffff1631905090565b6000809054906101000a900473ffffffffffffffffffffffffffffffffffffffff1673ffffffffffffffffffffffffffffffffffffffff163373ffffffffffffffffffffffffffffffffffffffff1614151561073557600080fd5b816000600160008373ffffffffffffffffffffffffffffffffffffffff1673ffffffffffffffffffffffffffffffffffffffff168152602001908152602001600020905060008160000160009054906101000a900473ffffffffffffffffffffffffffffffffffffffff1673ffffffffffffffffffffffffffffffffffffffff16141515156107c357600080fd5b826000600160008373ffffffffffffffffffffffffffffffffffffffff1673ffffffffffffffffffffffffffffffffffffffff168152602001908152602001600020905060008160000160009054906101000a900473ffffffffffffffffffffffffffffffffffffffff1673ffffffffffffffffffffffffffffffffffffffff1614151561085057600080fd5b6060604051908101604052808673ffffffffffffffffffffffffffffffffffffffff168152602001600160008973ffffffffffffffffffffffffffffffffffffffff1673ffffffffffffffffffffffffffffffffffffffff168152602001908152602001600020600101548152602001600160008973ffffffffffffffffffffffffffffffffffffffff1673ffffffffffffffffffffffffffffffffffffffff16815260200190815260200160002060020154815250600160008773ffffffffffffffffffffffffffffffffffffffff1673ffffffffffffffffffffffffffffffffffffffff16815260200190815260200160002060008201518160000160006101000a81548173ffffffffffffffffffffffffffffffffffffffff021916908373ffffffffffffffffffffffffffffffffffffffff1602179055506020820151816001015560408201518160020155905050600160008773ffffffffffffffffffffffffffffffffffffffff1673ffffffffffffffffffffffffffffffffffffffff168152602001908152602001600020600080820160006101000a81549073ffffffffffffffffffffffffffffffffffffffff0219169055600182016000905560028201600090555050505050505050565b6000336000600160008373ffffffffffffffffffffffffffffffffffffffff1673ffffffffffffffffffffffffffffffffffffffff168152602001908152602001600020905060008160000160009054906101000a900473ffffffffffffffffffffffffffffffffffffffff1673ffffffffffffffffffffffffffffffffffffffff1614151515610ab457600080fd5b610b0a600a600160003373ffffffffffffffffffffffffffffffffffffffff1673ffffffffffffffffffffffffffffffffffffffff1681526020019081526020016000206002015461113790919063ffffffff16565b92504283101515610b1a57600080fd5b82600160003373ffffffffffffffffffffffffffffffffffffffff1673ffffffffffffffffffffffffffffffffffffffff16815260200190815260200160002060020181905550610bad33600160003373ffffffffffffffffffffffffffffffffffffffff1673ffffffffffffffffffffffffffffffffffffffff1681526020019081526020016000206001015461116e565b505050565b60016020528060005260406000206000915090508060000160009054906101000a900473ffffffffffffffffffffffffffffffffffffffff16908060010154908060020154905083565b60008060009054906101000a900473ffffffffffffffffffffffffffffffffffffffff1673ffffffffffffffffffffffffffffffffffffffff163373ffffffffffffffffffffffffffffffffffffffff16141515610c5957600080fd5b816000600160008373ffffffffffffffffffffffffffffffffffffffff1673ffffffffffffffffffffffffffffffffffffffff168152602001908152602001600020905060008160000160009054906101000a900473ffffffffffffffffffffffffffffffffffffffff1673ffffffffffffffffffffffffffffffffffffffff1614151515610ce757600080fd5b610da4600160008673ffffffffffffffffffffffffffffffffffffffff1673ffffffffffffffffffffffffffffffffffffffff168152602001908152602001600020606060405190810160405290816000820160009054906101000a900473ffffffffffffffffffffffffffffffffffffffff1673ffffffffffffffffffffffffffffffffffffffff1673ffffffffffffffffffffffffffffffffffffffff168152602001600182015481526020016002820154815250506110b3565b9250610dfd600160008673ffffffffffffffffffffffffffffffffffffffff1673ffffffffffffffffffffffffffffffffffffffff1681526020019081526020016000206001015460025461115590919063ffffffff16565b600281905550600160008573ffffffffffffffffffffffffffffffffffffffff1673ffffffffffffffffffffffffffffffffffffffff168152602001908152602001600020600080820160006101000a81549073ffffffffffffffffffffffffffffffffffffffff0219169055600182016000905560028201600090555050610e86848461116e565b50505050565b6000809054906101000a900473ffffffffffffffffffffffffffffffffffffffff1673ffffffffffffffffffffffffffffffffffffffff163373ffffffffffffffffffffffffffffffffffffffff16141515610ee757600080fd5b816000600160008373ffffffffffffffffffffffffffffffffffffffff1673ffffffffffffffffffffffffffffffffffffffff168152602001908152602001600020905060008160000160009054906101000a900473ffffffffffffffffffffffffffffffffffffffff1673ffffffffffffffffffffffffffffffffffffffff16141515610f7457600080fd5b6060604051908101604052808573ffffffffffffffffffffffffffffffffffffffff168152602001610fb7670de0b6b3a7640000866110fc90919063ffffffff16565b815260200142815250600160008673ffffffffffffffffffffffffffffffffffffffff1673ffffffffffffffffffffffffffffffffffffffff16815260200190815260200160002060008201518160000160006101000a81548173ffffffffffffffffffffffffffffffffffffffff021916908373ffffffffffffffffffffffffffffffffffffffff160217905550602082015181600101556040820151816002015590505061108c61107b670de0b6b3a7640000856110fc90919063ffffffff16565b60025461113790919063ffffffff16565b60028190555050505050565b60008082848115156110a657fe5b0490508091505092915050565b60006110f5600a6110e76110d485604001514261115590919063ffffffff16565b85602001516110fc90919063ffffffff16565b61109890919063ffffffff16565b9050919050565b60008060008414156111115760009150611130565b828402905082848281151561112257fe5b0414151561112c57fe5b8091505b5092915050565b600080828401905083811015151561114b57fe5b8091505092915050565b600082821115151561116357fe5b818303905092915050565b60008273ffffffffffffffffffffffffffffffffffffffff16141580156111955750600081115b156111db578173ffffffffffffffffffffffffffffffffffffffff166108fc829081150290604051600060405180830381858888f1935050505015156111da57600080fd5b5b50505600a165627a7a7230582040c104f64d198196a1348a9f1ce174e2f8f21784140b94eacd3043ef3b5fa7060029",
  "source": "pragma solidity ^0.4.14;\n\nimport './SafeMath.sol';\n\ncontract Payroll {\n  using SafeMath for uint;\n  struct Employee {\n    address id;\n    uint salary;\n    uint lastPayday;\n  }\n\n  modifier ownerOnly {\n    require (msg.sender == owner);\n    _;\n  }\n\n  modifier employeeExists(address addr) {\n    var employee = employees[addr];\n    require(employee.id != 0x0);\n    _;\n  }\n\n  modifier employeeNotExists(address addr) {\n    var employee = employees[addr];\n    require(employee.id == 0x0);\n    _;\n  }\n  \n  uint constant payDuration = 10 seconds;\n\n  address public owner;\n  mapping(address => Employee) public employees;\n  uint public totalSalary;\n\n  function Payroll() {\n    owner = msg.sender;\n  }\n  \n  function _safelySendPayment(address addr, uint amount) private {\n    if (addr != 0x0 && amount > 0) {\n      addr.transfer(amount);\n    }\n  }\n  \n  function _calculatePayment(Employee e) private returns (uint) {\n    return e.salary.mul((now.sub(e.lastPayday))).div(payDuration);\n  }\n\n  function addEmployee(address employeeId, uint salary) public\n      ownerOnly employeeNotExists(employeeId) {        \n    employees[employeeId] = Employee(employeeId, salary.mul(1 ether), now);\n    totalSalary = totalSalary.add(salary.mul(1 ether));\n  }\n  \n  function removeEmployee(address employeeId) \n      ownerOnly employeeExists(employeeId) {        \n    uint payment = _calculatePayment(employees[employeeId]);\n    totalSalary = totalSalary.sub(employees[employeeId].salary);\n    delete employees[employeeId];\n    \n    _safelySendPayment(employeeId, payment);\n  }\n  \n  function updateEmployee(address employeeId, uint salary) \n      ownerOnly employeeExists(employeeId) {        \n    uint payment = _calculatePayment(employees[employeeId]);\n    totalSalary = totalSalary.add(salary.mul(1 ether));\n    totalSalary = totalSalary.sub(employees[employeeId].salary);\n    employees[employeeId].salary = salary.mul(1 ether);\n    employees[employeeId].lastPayday = now;\n\n    _safelySendPayment(employeeId, payment);\n  }\n\n  function changePaymentAddress(address employeeId, address newAddress)\n      ownerOnly employeeExists(employeeId) employeeNotExists(newAddress){\n    employees[newAddress] = \n        Employee(newAddress, \n                 employees[employeeId].salary,\n                 employees[employeeId].lastPayday);\n    delete employees[employeeId];\n  }\n  \n  function addFund() payable returns (uint) {\n    return this.balance;\n  }\n  \n  function calculateRunway() returns (uint) {\n    return this.balance.div(totalSalary);\n  }\n  \n  function hasEnoughFund() returns (bool) {\n    return calculateRunway() > 0;\n  }\n  \n  function getPaid() employeeExists(msg.sender) {       \n    uint nextPayDay = employees[msg.sender].lastPayday.add(payDuration);\n    require(nextPayDay < now);\n    \n    employees[msg.sender].lastPayday = nextPayDay;\n    _safelySendPayment(msg.sender, employees[msg.sender].salary);\n  }\n}\n",
  "sourcePath": "/Users/Xcy/code/smart_contract/Lesson-4/assignment/contracts/Payroll.sol",
  "compiler": {
    "name": "solc",
    "version": "0.4.19+commit.c4cbbb05.Emscripten.clang"
  },
  "schemaVersion": "2.0.0",
  "updatedAt": "2018-03-24T20:59:24.192Z"
}