{
  "contractName": "payRoll",
  "abi": [
    {
      "constant": true,
      "inputs": [],
      "name": "owner",
      "outputs": [
        {
          "name": "",
          "type": "address"
        }
      ],
      "payable": false,
      "stateMutability": "view",
      "type": "function"
    },
    {
      "constant": false,
      "inputs": [
        {
          "name": "newOwner",
          "type": "address"
        }
      ],
      "name": "transferOwnership",
      "outputs": [],
      "payable": false,
      "stateMutability": "nonpayable",
      "type": "function"
    },
    {
      "anonymous": false,
      "inputs": [
        {
          "indexed": true,
          "name": "previousOwner",
          "type": "address"
        },
        {
          "indexed": true,
          "name": "newOwner",
          "type": "address"
        }
      ],
      "name": "OwnershipTransferred",
      "type": "event"
    },
    {
      "constant": false,
      "inputs": [],
      "name": "addFund",
      "outputs": [
        {
          "name": "",
          "type": "uint256"
        }
      ],
      "payable": true,
      "stateMutability": "payable",
      "type": "function"
    },
    {
      "constant": false,
      "inputs": [],
      "name": "calculateRunway",
      "outputs": [
        {
          "name": "",
          "type": "uint256"
        }
      ],
      "payable": false,
      "stateMutability": "nonpayable",
      "type": "function"
    },
    {
      "constant": false,
      "inputs": [],
      "name": "hasEnoughFund",
      "outputs": [
        {
          "name": "",
          "type": "bool"
        }
      ],
      "payable": false,
      "stateMutability": "nonpayable",
      "type": "function"
    },
    {
      "constant": false,
      "inputs": [
        {
          "name": "id",
          "type": "address"
        }
      ],
      "name": "partialPay",
      "outputs": [],
      "payable": false,
      "stateMutability": "nonpayable",
      "type": "function"
    },
    {
      "constant": false,
      "inputs": [
        {
          "name": "id",
          "type": "address"
        },
        {
          "name": "salary",
          "type": "uint256"
        }
      ],
      "name": "addEmployee",
      "outputs": [],
      "payable": false,
      "stateMutability": "nonpayable",
      "type": "function"
    },
    {
      "constant": false,
      "inputs": [
        {
          "name": "employeeId",
          "type": "address"
        }
      ],
      "name": "removeEmployee",
      "outputs": [],
      "payable": false,
      "stateMutability": "nonpayable",
      "type": "function"
    },
    {
      "constant": false,
      "inputs": [
        {
          "name": "id",
          "type": "address"
        },
        {
          "name": "newSalary",
          "type": "uint256"
        }
      ],
      "name": "updateEmployee",
      "outputs": [],
      "payable": false,
      "stateMutability": "nonpayable",
      "type": "function"
    },
    {
      "constant": false,
      "inputs": [
        {
          "name": "oldAddress",
          "type": "address"
        },
        {
          "name": "newAddress",
          "type": "address"
        }
      ],
      "name": "changePaymentAddress",
      "outputs": [],
      "payable": false,
      "stateMutability": "nonpayable",
      "type": "function"
    },
    {
      "constant": false,
      "inputs": [],
      "name": "getPaid",
      "outputs": [],
      "payable": false,
      "stateMutability": "nonpayable",
      "type": "function"
    }
  ],
  "bytecode": "0x60606040526000600155336000806101000a81548173ffffffffffffffffffffffffffffffffffffffff021916908373ffffffffffffffffffffffffffffffffffffffff160217905550611081806100586000396000f3006060604052600436106100af576000357c0100000000000000000000000000000000000000000000000000000000900463ffffffff16806323fed09e146100b45780634ec19512146100e15780635e91d8ec1461010a5780638da5cb5b1461014c578063a2f09dfa146101a1578063bad33694146101bf578063bc456c42146101f8578063cf41d6f814610250578063d108177a14610265578063e7fd9a131461029e578063f2fde38b146102e0575b600080fd5b34156100bf57600080fd5b6100c7610319565b604051808215151515815260200191505060405180910390f35b34156100ec57600080fd5b6100f461032a565b6040518082815260200191505060405180910390f35b341561011557600080fd5b61014a600480803573ffffffffffffffffffffffffffffffffffffffff16906020019091908035906020019091905050610356565b005b341561015757600080fd5b61015f6104e3565b604051808273ffffffffffffffffffffffffffffffffffffffff1673ffffffffffffffffffffffffffffffffffffffff16815260200191505060405180910390f35b6101a9610508565b6040518082815260200191505060405180910390f35b34156101ca57600080fd5b6101f6600480803573ffffffffffffffffffffffffffffffffffffffff16906020019091905050610527565b005b341561020357600080fd5b61024e600480803573ffffffffffffffffffffffffffffffffffffffff1690602001909190803573ffffffffffffffffffffffffffffffffffffffff169060200190919050506105f2565b005b341561025b57600080fd5b6102636108fd565b005b341561027057600080fd5b61029c600480803573ffffffffffffffffffffffffffffffffffffffff16906020019091905050610a41565b005b34156102a957600080fd5b6102de600480803573ffffffffffffffffffffffffffffffffffffffff16906020019091908035906020019091905050610c03565b005b34156102eb57600080fd5b610317600480803573ffffffffffffffffffffffffffffffffffffffff16906020019091905050610e73565b005b60008061032461032a565b11905090565b60006001543073ffffffffffffffffffffffffffffffffffffffff163181151561035057fe5b04905090565b60008060009054906101000a900473ffffffffffffffffffffffffffffffffffffffff1673ffffffffffffffffffffffffffffffffffffffff163373ffffffffffffffffffffffffffffffffffffffff161415156103b357600080fd5b826000600260008373ffffffffffffffffffffffffffffffffffffffff1673ffffffffffffffffffffffffffffffffffffffff16815260200190815260200160002060000160009054906101000a900473ffffffffffffffffffffffffffffffffffffffff1673ffffffffffffffffffffffffffffffffffffffff161415151561043c57600080fd5b600260008573ffffffffffffffffffffffffffffffffffffffff1673ffffffffffffffffffffffffffffffffffffffff168152602001908152602001600020915061048684610527565b6104bb670de0b6b3a764000084026104ad8460010154600154610fc890919063ffffffff16565b610fe190919063ffffffff16565b600181905550670de0b6b3a76400008302826001018190555042826002018190555050505050565b6000809054906101000a900473ffffffffffffffffffffffffffffffffffffffff1681565b60003073ffffffffffffffffffffffffffffffffffffffff1631905090565b600080600260008473ffffffffffffffffffffffffffffffffffffffff1673ffffffffffffffffffffffffffffffffffffffff16815260200190815260200160002091506105ab600a61059d61058a856002015442610fc890919063ffffffff16565b8560010154610fff90919063ffffffff16565b61103a90919063ffffffff16565b90508273ffffffffffffffffffffffffffffffffffffffff166108fc829081150290604051600060405180830381858888f1935050505015156105ed57600080fd5b505050565b60008060009054906101000a900473ffffffffffffffffffffffffffffffffffffffff1673ffffffffffffffffffffffffffffffffffffffff163373ffffffffffffffffffffffffffffffffffffffff1614151561064f57600080fd5b826000600260008373ffffffffffffffffffffffffffffffffffffffff1673ffffffffffffffffffffffffffffffffffffffff16815260200190815260200160002060000160009054906101000a900473ffffffffffffffffffffffffffffffffffffffff1673ffffffffffffffffffffffffffffffffffffffff16141515156106d857600080fd5b826000600260008373ffffffffffffffffffffffffffffffffffffffff1673ffffffffffffffffffffffffffffffffffffffff16815260200190815260200160002060000160009054906101000a900473ffffffffffffffffffffffffffffffffffffffff1673ffffffffffffffffffffffffffffffffffffffff1614151561076057600080fd5b600260008673ffffffffffffffffffffffffffffffffffffffff1673ffffffffffffffffffffffffffffffffffffffff16815260200190815260200160002092506107aa85610527565b6060604051908101604052808573ffffffffffffffffffffffffffffffffffffffff1681526020018460010154815260200142815250600260008673ffffffffffffffffffffffffffffffffffffffff1673ffffffffffffffffffffffffffffffffffffffff16815260200190815260200160002060008201518160000160006101000a81548173ffffffffffffffffffffffffffffffffffffffff021916908373ffffffffffffffffffffffffffffffffffffffff1602179055506020820151816001015560408201518160020155905050600260008673ffffffffffffffffffffffffffffffffffffffff1673ffffffffffffffffffffffffffffffffffffffff168152602001908152602001600020600080820160006101000a81549073ffffffffffffffffffffffffffffffffffffffff02191690556001820160009055600282016000905550505050505050565b600080336000600260008373ffffffffffffffffffffffffffffffffffffffff1673ffffffffffffffffffffffffffffffffffffffff16815260200190815260200160002060000160009054906101000a900473ffffffffffffffffffffffffffffffffffffffff1673ffffffffffffffffffffffffffffffffffffffff161415151561098957600080fd5b600260003373ffffffffffffffffffffffffffffffffffffffff1673ffffffffffffffffffffffffffffffffffffffff16815260200190815260200160002092506109e2600a8460020154610fe190919063ffffffff16565b915042821015156109ef57fe5b3373ffffffffffffffffffffffffffffffffffffffff166108fc84600101549081150290604051600060405180830381858888f193505050501515610a3357600080fd5b818360020181905550505050565b6000809054906101000a900473ffffffffffffffffffffffffffffffffffffffff1673ffffffffffffffffffffffffffffffffffffffff163373ffffffffffffffffffffffffffffffffffffffff16141515610a9c57600080fd5b806000600260008373ffffffffffffffffffffffffffffffffffffffff1673ffffffffffffffffffffffffffffffffffffffff16815260200190815260200160002060000160009054906101000a900473ffffffffffffffffffffffffffffffffffffffff1673ffffffffffffffffffffffffffffffffffffffff1614151515610b2557600080fd5b610b2e82610527565b600260008373ffffffffffffffffffffffffffffffffffffffff1673ffffffffffffffffffffffffffffffffffffffff168152602001908152602001600020600080820160006101000a81549073ffffffffffffffffffffffffffffffffffffffff0219169055600182016000905560028201600090555050610bfe600260008473ffffffffffffffffffffffffffffffffffffffff1673ffffffffffffffffffffffffffffffffffffffff16815260200190815260200160002060010154600154610fc890919063ffffffff16565b505050565b6000806000809054906101000a900473ffffffffffffffffffffffffffffffffffffffff1673ffffffffffffffffffffffffffffffffffffffff163373ffffffffffffffffffffffffffffffffffffffff16141515610c6157600080fd5b836000600260008373ffffffffffffffffffffffffffffffffffffffff1673ffffffffffffffffffffffffffffffffffffffff16815260200190815260200160002060000160009054906101000a900473ffffffffffffffffffffffffffffffffffffffff1673ffffffffffffffffffffffffffffffffffffffff16141515610ce957600080fd5b600260008673ffffffffffffffffffffffffffffffffffffffff1673ffffffffffffffffffffffffffffffffffffffff168152602001908152602001600020925060008360000160009054906101000a900473ffffffffffffffffffffffffffffffffffffffff1673ffffffffffffffffffffffffffffffffffffffff16141515610d7057fe5b610d8b670de0b6b3a764000085610fff90919063ffffffff16565b91506060604051908101604052808673ffffffffffffffffffffffffffffffffffffffff16815260200183815260200142815250600260008773ffffffffffffffffffffffffffffffffffffffff1673ffffffffffffffffffffffffffffffffffffffff16815260200190815260200160002060008201518160000160006101000a81548173ffffffffffffffffffffffffffffffffffffffff021916908373ffffffffffffffffffffffffffffffffffffffff1602179055506020820151816001015560408201518160020155905050816001600082825401925050819055505050505050565b6000809054906101000a900473ffffffffffffffffffffffffffffffffffffffff1673ffffffffffffffffffffffffffffffffffffffff163373ffffffffffffffffffffffffffffffffffffffff16141515610ece57600080fd5b600073ffffffffffffffffffffffffffffffffffffffff168173ffffffffffffffffffffffffffffffffffffffff1614151515610f0a57600080fd5b8073ffffffffffffffffffffffffffffffffffffffff166000809054906101000a900473ffffffffffffffffffffffffffffffffffffffff1673ffffffffffffffffffffffffffffffffffffffff167f8be0079c531659141344cd1fd0a4f28419497f9722a3daafe3b4186f6b6457e060405160405180910390a3806000806101000a81548173ffffffffffffffffffffffffffffffffffffffff021916908373ffffffffffffffffffffffffffffffffffffffff16021790555050565b6000828211151515610fd657fe5b818303905092915050565b6000808284019050838110151515610ff557fe5b8091505092915050565b60008060008414156110145760009150611033565b828402905082848281151561102557fe5b0414151561102f57fe5b8091505b5092915050565b600080828481151561104857fe5b04905080915050929150505600a165627a7a72305820e37dec772d2fde42b46440a31e5e594aeecf0161bc48640909fb8302c988d7cb0029",
  "source": "/*作业请提交在这个目录下*/\n\npragma solidity ^0.4.14;\nimport './Ownable.sol';\nimport './SafeMath.sol';\ncontract payRoll is Ownable{\n    using SafeMath for uint;\n    struct Employee {\n    address id;\n    uint salary;\n    uint lastPayday;\n    }\n    uint totalSalary = 0;\n    mapping (address => Employee) employees;\n    uint constant payDuration = 10 seconds;\n    // 充值\n    function addFund() payable returns(uint){\n        return this.balance;\n    }\n\n    function calculateRunway() returns (uint) {\n        return this.balance / totalSalary;\n    }\n\n    function hasEnoughFund() returns (bool) {\n        return calculateRunway() > 0;\n    }\n\n\n    modifier hasNoEmployee (address employeeId){\n        require(employees[employeeId].id == 0x0);\n        _;\n    }\n    modifier hasEmployee (address employeeId){\n        require(employees[employeeId].id != 0x0);\n        _;\n    }\n\n    function partialPay(address id){\n        var employee = employees[id];\n        uint payment = employee.salary.mul(now.sub(employee.lastPayday)).div(payDuration);\n        id.transfer(payment);\n\n    }\n\n\n    //\n    function addEmployee (address id,uint salary) onlyOwner hasNoEmployee(id) {\n        var employee =employees[id];\n        assert(employee.id==0x0);\n        uint _salary = salary.mul(1 ether);\n        employees[id]=Employee(id,_salary,now);\n        totalSalary+=_salary;\n\n\n    }\n    function removeEmployee (address employeeId) onlyOwner hasEmployee(employeeId){\n\n\n        partialPay(employeeId);\n        delete employees[employeeId];\n        totalSalary.sub(employees[employeeId].salary);\n\n    }\n    function updateEmployee (address id,uint newSalary) onlyOwner hasEmployee(id){\n        var employee = employees[id];\n\n        partialPay(id);\n\n        totalSalary = totalSalary.sub(employee.salary).add(newSalary * 1 ether);\n\n        employee.salary = newSalary * 1 ether;\n        employee.lastPayday = now;\n    }\n\n    function changePaymentAddress(address oldAddress, address newAddress) onlyOwner hasEmployee(oldAddress) hasNoEmployee(newAddress) {\n\n        Employee employee = employees[oldAddress];\n        partialPay(oldAddress);\n        employees[newAddress] = Employee(newAddress, employee.salary, now);\n        delete employees[oldAddress];\n\n    }\n\n    function getPaid() hasEmployee(msg.sender) {\n\n        Employee employee = employees[msg.sender];\n        uint nextPayDay = employee.lastPayday.add(payDuration);\n        assert(nextPayDay < now);\n\n        msg.sender.transfer(employee.salary);\n        employee.lastPayday = nextPayDay;\n\n    }\n\n\n\n}",
  "sourcePath": "/Users/liucc/lab/ether-dev/contracts/Payroll.sol",
  "compiler": {
    "name": "solc",
    "version": "0.4.19+commit.c4cbbb05.Emscripten.clang"
  },
  "schemaVersion": "2.0.0",
  "updatedAt": "2018-03-24T13:54:28.639Z"
}