{
  "contractName": "Payroll",
  "abi": [
    {
      "constant": true,
      "inputs": [],
      "name": "owner",
      "outputs": [
        {
          "name": "",
          "type": "address"
        }
      ],
      "payable": false,
      "stateMutability": "view",
      "type": "function"
    },
    {
      "constant": true,
      "inputs": [
        {
          "name": "",
          "type": "address"
        }
      ],
      "name": "employees",
      "outputs": [
        {
          "name": "id",
          "type": "address"
        },
        {
          "name": "salary",
          "type": "uint256"
        },
        {
          "name": "lastPayday",
          "type": "uint256"
        }
      ],
      "payable": false,
      "stateMutability": "view",
      "type": "function"
    },
    {
      "constant": false,
      "inputs": [
        {
          "name": "newOwner",
          "type": "address"
        }
      ],
      "name": "transferOwnership",
      "outputs": [],
      "payable": false,
      "stateMutability": "nonpayable",
      "type": "function"
    },
    {
      "anonymous": false,
      "inputs": [
        {
          "indexed": false,
          "name": "employee",
          "type": "address"
        }
      ],
      "name": "NewEmployee",
      "type": "event"
    },
    {
      "anonymous": false,
      "inputs": [
        {
          "indexed": false,
          "name": "employee",
          "type": "address"
        }
      ],
      "name": "UpdateEmployee",
      "type": "event"
    },
    {
      "anonymous": false,
      "inputs": [
        {
          "indexed": false,
          "name": "employee",
          "type": "address"
        }
      ],
      "name": "RemoveEmployee",
      "type": "event"
    },
    {
      "anonymous": false,
      "inputs": [
        {
          "indexed": false,
          "name": "balance",
          "type": "uint256"
        }
      ],
      "name": "NewFund",
      "type": "event"
    },
    {
      "anonymous": false,
      "inputs": [
        {
          "indexed": false,
          "name": "employee",
          "type": "address"
        }
      ],
      "name": "GetPaid",
      "type": "event"
    },
    {
      "anonymous": false,
      "inputs": [
        {
          "indexed": true,
          "name": "previousOwner",
          "type": "address"
        },
        {
          "indexed": true,
          "name": "newOwner",
          "type": "address"
        }
      ],
      "name": "OwnershipTransferred",
      "type": "event"
    },
    {
      "constant": false,
      "inputs": [
        {
          "name": "id",
          "type": "address"
        }
      ],
      "name": "partialPay",
      "outputs": [],
      "payable": false,
      "stateMutability": "nonpayable",
      "type": "function"
    },
    {
      "constant": false,
      "inputs": [
        {
          "name": "employeeId",
          "type": "address"
        },
        {
          "name": "salary",
          "type": "uint256"
        }
      ],
      "name": "addEmployee",
      "outputs": [],
      "payable": false,
      "stateMutability": "nonpayable",
      "type": "function"
    },
    {
      "constant": false,
      "inputs": [
        {
          "name": "employeeId",
          "type": "address"
        }
      ],
      "name": "removeEmployee",
      "outputs": [],
      "payable": false,
      "stateMutability": "nonpayable",
      "type": "function"
    },
    {
      "constant": false,
      "inputs": [
        {
          "name": "employeeId",
          "type": "address"
        },
        {
          "name": "salary",
          "type": "uint256"
        }
      ],
      "name": "updateEmployee",
      "outputs": [],
      "payable": false,
      "stateMutability": "nonpayable",
      "type": "function"
    },
    {
      "constant": false,
      "inputs": [],
      "name": "addFund",
      "outputs": [
        {
          "name": "",
          "type": "uint256"
        }
      ],
      "payable": true,
      "stateMutability": "payable",
      "type": "function"
    },
    {
      "constant": false,
      "inputs": [],
      "name": "calculateRunway",
      "outputs": [
        {
          "name": "",
          "type": "uint256"
        }
      ],
      "payable": false,
      "stateMutability": "nonpayable",
      "type": "function"
    },
    {
      "constant": false,
      "inputs": [],
      "name": "hasEnoughFund",
      "outputs": [
        {
          "name": "",
          "type": "bool"
        }
      ],
      "payable": false,
      "stateMutability": "nonpayable",
      "type": "function"
    },
    {
      "constant": false,
      "inputs": [],
      "name": "getPaid",
      "outputs": [],
      "payable": false,
      "stateMutability": "nonpayable",
      "type": "function"
    },
    {
      "constant": false,
      "inputs": [
        {
          "name": "index",
          "type": "uint256"
        }
      ],
      "name": "checkEmployee",
      "outputs": [
        {
          "name": "employeeId",
          "type": "address"
        },
        {
          "name": "salary",
          "type": "uint256"
        },
        {
          "name": "lastPayday",
          "type": "uint256"
        }
      ],
      "payable": false,
      "stateMutability": "nonpayable",
      "type": "function"
    },
    {
      "constant": false,
      "inputs": [],
      "name": "checkInfo",
      "outputs": [
        {
          "name": "balance",
          "type": "uint256"
        },
        {
          "name": "runway",
          "type": "uint256"
        },
        {
          "name": "employeeCount",
          "type": "uint256"
        }
      ],
      "payable": false,
      "stateMutability": "nonpayable",
      "type": "function"
    }
  ],
  "bytecode": "0x6060604052336000806101000a81548173ffffffffffffffffffffffffffffffffffffffff021916908373ffffffffffffffffffffffffffffffffffffffff1602179055506111f0806100536000396000f3006060604052600436106100c5576000357c0100000000000000000000000000000000000000000000000000000000900463ffffffff16806323fed09e146100ca5780634ec19512146100f75780635e91d8ec1461012057806385a96258146101625780638da5cb5b1461019957806396b02696146101ee578063a2f09dfa1461025f578063bad336941461027d578063cf41d6f8146102b6578063d0678947146102cb578063d108177a14610352578063e7fd9a131461038b578063f2fde38b146103cd575b600080fd5b34156100d557600080fd5b6100dd610406565b604051808215151515815260200191505060405180910390f35b341561010257600080fd5b61010a610417565b6040518082815260200191505060405180910390f35b341561012b57600080fd5b610160600480803573ffffffffffffffffffffffffffffffffffffffff1690602001909190803590602001909190505061044a565b005b341561016d57600080fd5b6101756105ea565b60405180848152602001838152602001828152602001935050505060405180910390f35b34156101a457600080fd5b6101ac610629565b604051808273ffffffffffffffffffffffffffffffffffffffff1673ffffffffffffffffffffffffffffffffffffffff16815260200191505060405180910390f35b34156101f957600080fd5b61020f600480803590602001909190505061064e565b604051808473ffffffffffffffffffffffffffffffffffffffff1673ffffffffffffffffffffffffffffffffffffffff168152602001838152602001828152602001935050505060405180910390f35b6102676106e8565b6040518082815260200191505060405180910390f35b341561028857600080fd5b6102b4600480803573ffffffffffffffffffffffffffffffffffffffff16906020019091905050610755565b005b34156102c157600080fd5b6102c9610820565b005b34156102d657600080fd5b610302600480803573ffffffffffffffffffffffffffffffffffffffff169060200190919050506109eb565b604051808473ffffffffffffffffffffffffffffffffffffffff1673ffffffffffffffffffffffffffffffffffffffff168152602001838152602001828152602001935050505060405180910390f35b341561035d57600080fd5b610389600480803573ffffffffffffffffffffffffffffffffffffffff16906020019091905050610a35565b005b341561039657600080fd5b6103cb600480803573ffffffffffffffffffffffffffffffffffffffff16906020019091908035906020019091905050610c81565b005b34156103d857600080fd5b610404600480803573ffffffffffffffffffffffffffffffffffffffff16906020019091905050610f91565b005b600080610411610417565b11905090565b60006104456001543073ffffffffffffffffffffffffffffffffffffffff16316110e690919063ffffffff16565b905090565b60008060009054906101000a900473ffffffffffffffffffffffffffffffffffffffff1673ffffffffffffffffffffffffffffffffffffffff163373ffffffffffffffffffffffffffffffffffffffff161415156104a757600080fd5b826000600460008373ffffffffffffffffffffffffffffffffffffffff1673ffffffffffffffffffffffffffffffffffffffff16815260200190815260200160002060000160009054906101000a900473ffffffffffffffffffffffffffffffffffffffff1673ffffffffffffffffffffffffffffffffffffffff161415151561053057600080fd5b600460008573ffffffffffffffffffffffffffffffffffffffff1673ffffffffffffffffffffffffffffffffffffffff168152602001908152602001600020915061057a84610755565b610593826001015460015461110190919063ffffffff16565b6001819055506105b4670de0b6b3a76400008461111a90919063ffffffff16565b82600101819055504282600201819055506105de826001015460015461115590919063ffffffff16565b60018190555050505050565b60008060003073ffffffffffffffffffffffffffffffffffffffff1631925060025490506000600154111561062457610621610417565b91505b909192565b6000809054906101000a900473ffffffffffffffffffffffffffffffffffffffff1681565b60008060008060038581548110151561066357fe5b906000526020600020900160009054906101000a900473ffffffffffffffffffffffffffffffffffffffff169350600460008573ffffffffffffffffffffffffffffffffffffffff1673ffffffffffffffffffffffffffffffffffffffff16815260200190815260200160002090508060010154925080600201549150509193909250565b60007fbe1e4b1ad5d83f75925e2f00ab046fbab2ee90d0dbdf7f2049d037a48ada09f33073ffffffffffffffffffffffffffffffffffffffff16316040518082815260200191505060405180910390a13073ffffffffffffffffffffffffffffffffffffffff1631905090565b600080600460008473ffffffffffffffffffffffffffffffffffffffff1673ffffffffffffffffffffffffffffffffffffffff16815260200190815260200160002091506107d9600a6107cb6107b885600201544261110190919063ffffffff16565b856001015461111a90919063ffffffff16565b6110e690919063ffffffff16565b90508273ffffffffffffffffffffffffffffffffffffffff166108fc829081150290604051600060405180830381858888f19350505050151561081b57600080fd5b505050565b600080336000600460008373ffffffffffffffffffffffffffffffffffffffff1673ffffffffffffffffffffffffffffffffffffffff16815260200190815260200160002060000160009054906101000a900473ffffffffffffffffffffffffffffffffffffffff1673ffffffffffffffffffffffffffffffffffffffff16141515156108ac57600080fd5b600460003373ffffffffffffffffffffffffffffffffffffffff1673ffffffffffffffffffffffffffffffffffffffff1681526020019081526020016000209250610905600a846002015461115590919063ffffffff16565b9150428210151561091257fe5b8183600201819055508260000160009054906101000a900473ffffffffffffffffffffffffffffffffffffffff1673ffffffffffffffffffffffffffffffffffffffff166108fc84600101549081150290604051600060405180830381858888f19350505050151561098357600080fd5b7f7decdec0fa70b21ecd45a15b04d5f5313c8fc915a1b3c034aa2bffa4fc8fc59133604051808273ffffffffffffffffffffffffffffffffffffffff1673ffffffffffffffffffffffffffffffffffffffff16815260200191505060405180910390a1505050565b60046020528060005260406000206000915090508060000160009054906101000a900473ffffffffffffffffffffffffffffffffffffffff16908060010154908060020154905083565b60008060009054906101000a900473ffffffffffffffffffffffffffffffffffffffff1673ffffffffffffffffffffffffffffffffffffffff163373ffffffffffffffffffffffffffffffffffffffff16141515610a9257600080fd5b816000600460008373ffffffffffffffffffffffffffffffffffffffff1673ffffffffffffffffffffffffffffffffffffffff16815260200190815260200160002060000160009054906101000a900473ffffffffffffffffffffffffffffffffffffffff1673ffffffffffffffffffffffffffffffffffffffff1614151515610b1b57600080fd5b600460008473ffffffffffffffffffffffffffffffffffffffff1673ffffffffffffffffffffffffffffffffffffffff1681526020019081526020016000209150610b6583610755565b610b7e826001015460015461110190919063ffffffff16565b600181905550600460008473ffffffffffffffffffffffffffffffffffffffff1673ffffffffffffffffffffffffffffffffffffffff168152602001908152602001600020600080820160006101000a81549073ffffffffffffffffffffffffffffffffffffffff0219169055600182016000905560028201600090555050610c13600160025461110190919063ffffffff16565b6002819055507f52d6abdca596d1c4a93f3df131dcf3a55ecaaa92ab3a0be58a15b98aab12d49b83604051808273ffffffffffffffffffffffffffffffffffffffff1673ffffffffffffffffffffffffffffffffffffffff16815260200191505060405180910390a1505050565b6000809054906101000a900473ffffffffffffffffffffffffffffffffffffffff1673ffffffffffffffffffffffffffffffffffffffff163373ffffffffffffffffffffffffffffffffffffffff16141515610cdc57600080fd5b816000600460008373ffffffffffffffffffffffffffffffffffffffff1673ffffffffffffffffffffffffffffffffffffffff16815260200190815260200160002060000160009054906101000a900473ffffffffffffffffffffffffffffffffffffffff1673ffffffffffffffffffffffffffffffffffffffff16141515610d6457600080fd5b6060604051908101604052808473ffffffffffffffffffffffffffffffffffffffff168152602001610da7670de0b6b3a76400008561111a90919063ffffffff16565b815260200142815250600460008573ffffffffffffffffffffffffffffffffffffffff1673ffffffffffffffffffffffffffffffffffffffff16815260200190815260200160002060008201518160000160006101000a81548173ffffffffffffffffffffffffffffffffffffffff021916908373ffffffffffffffffffffffffffffffffffffffff1602179055506020820151816001015560408201518160020155905050610ea4600460008573ffffffffffffffffffffffffffffffffffffffff1673ffffffffffffffffffffffffffffffffffffffff1681526020019081526020016000206001015460015461115590919063ffffffff16565b600181905550610ec0600160025461115590919063ffffffff16565b60028190555060038054806001018281610eda9190611173565b9160005260206000209001600085909190916101000a81548173ffffffffffffffffffffffffffffffffffffffff021916908373ffffffffffffffffffffffffffffffffffffffff160217905550507f37e9308d0d750d43a2e5ef16b6d47b60b2741e12be41128ca3bec877db4f9dcb83604051808273ffffffffffffffffffffffffffffffffffffffff1673ffffffffffffffffffffffffffffffffffffffff16815260200191505060405180910390a1505050565b6000809054906101000a900473ffffffffffffffffffffffffffffffffffffffff1673ffffffffffffffffffffffffffffffffffffffff163373ffffffffffffffffffffffffffffffffffffffff16141515610fec57600080fd5b600073ffffffffffffffffffffffffffffffffffffffff168173ffffffffffffffffffffffffffffffffffffffff161415151561102857600080fd5b8073ffffffffffffffffffffffffffffffffffffffff166000809054906101000a900473ffffffffffffffffffffffffffffffffffffffff1673ffffffffffffffffffffffffffffffffffffffff167f8be0079c531659141344cd1fd0a4f28419497f9722a3daafe3b4186f6b6457e060405160405180910390a3806000806101000a81548173ffffffffffffffffffffffffffffffffffffffff021916908373ffffffffffffffffffffffffffffffffffffffff16021790555050565b60008082848115156110f457fe5b0490508091505092915050565b600082821115151561110f57fe5b818303905092915050565b600080600084141561112f576000915061114e565b828402905082848281151561114057fe5b0414151561114a57fe5b8091505b5092915050565b600080828401905083811015151561116957fe5b8091505092915050565b81548183558181151161119a57818360005260206000209182019101611199919061119f565b5b505050565b6111c191905b808211156111bd5760008160009055506001016111a5565b5090565b905600a165627a7a72305820fe2adae467b65c576a6a27a72e922e6cffe2e4c4823714de7b291e48659e69960029",
  "source": "/*作业请提交在这个目录下*/\n\npragma solidity ^0.4.14;\n\nimport './SafeMath.sol';\nimport './Ownable.sol';\n\ncontract Payroll is Ownable {\n    using SafeMath for uint;\n    struct Employee {\n    address id;\n    uint salary;\n    uint lastPayday;\n    }\n\n    uint constant payDuration = 10 seconds;\n\n    uint totalSalary;\n    uint totalEmployee;\n    address[] employeeList;\n    mapping(address => Employee) public employees;\n\n  event NewEmployee(\n        address employee\n    );\n\n    event UpdateEmployee(\n        address employee\n    );\n\n    event RemoveEmployee(\n        address employee\n    );\n\n    event NewFund(\n        uint balance\n    );\n\n    event GetPaid(\n        address employee\n    );\n\n    modifier hasNoEmployee (address employeeId){\n        require(employees[employeeId].id == 0x0);\n        _;\n    }\n    modifier hasEmployee (address employeeId){\n        require(employees[employeeId].id != 0x0);\n        _;\n    }\n\n    function partialPay(address id){\n        var employee = employees[id];\n        uint payment = employee.salary.mul(now.sub(employee.lastPayday)).div(payDuration);\n        id.transfer(payment);\n\n    }\n\n\n\n    function addEmployee(address employeeId, uint salary) onlyOwner hasNoEmployee(employeeId){\n\n        employees[employeeId] = Employee(employeeId, salary.mul(1 ether), now);\n        totalSalary = totalSalary.add(employees[employeeId].salary);\n        totalEmployee = totalEmployee.add(1);\n        employeeList.push(employeeId);\n        NewEmployee(employeeId);\n    }\n\n    function removeEmployee(address employeeId) onlyOwner hasEmployee(employeeId) {\n        var employee = employees[employeeId];\n\n        partialPay(employeeId);\n        totalSalary = totalSalary.sub(employee.salary);\n        delete employees[employeeId];\n        totalEmployee = totalEmployee.sub(1);\n        RemoveEmployee(employeeId);\n    }\n\n    function updateEmployee(address employeeId, uint salary) onlyOwner hasEmployee(employeeId) {\n        var employee = employees[employeeId];\n\n        partialPay(employeeId);\n        totalSalary = totalSalary.sub(employee.salary);\n        employee.salary = salary.mul(1 ether);\n        employee.lastPayday = now;\n        totalSalary = totalSalary.add(employee.salary);\n    }\n\n    function addFund() payable returns (uint) {\n        NewFund(this.balance);\n        return this.balance;\n    }\n\n    function calculateRunway() returns (uint) {\n        return this.balance.div(totalSalary);\n    }\n\n    function hasEnoughFund() returns (bool) {\n        return calculateRunway() > 0;\n    }\n\n    function getPaid() hasEmployee(msg.sender) {\n        var employee = employees[msg.sender];\n\n        uint nextPayday = employee.lastPayday.add(payDuration);\n        assert(nextPayday < now);\n\n        employee.lastPayday = nextPayday;\n        employee.id.transfer(employee.salary);\n        GetPaid(msg.sender);\n    }\n\n    function checkEmployee(uint index) returns (address employeeId, uint salary, uint lastPayday) {\n        employeeId = employeeList[index];\n        var employee = employees[employeeId];\n        salary = employee.salary;\n        lastPayday = employee.lastPayday;\n    }\n    function checkInfo() returns (uint balance, uint runway, uint employeeCount) {\n        balance = this.balance;\n        employeeCount = totalEmployee;\n\n        if (totalSalary > 0) {\n            runway = calculateRunway();\n        }\n    }\n}",
  "sourcePath": "/Users/liucc/lab/Team-C/Lesson-6/assignment/contracts/Payroll.sol",
  "compiler": {
    "name": "solc",
    "version": "0.4.19+commit.c4cbbb05.Emscripten.clang"
  },
  "schemaVersion": "2.0.0",
  "updatedAt": "2018-04-02T05:52:53.331Z"
}