{
  "contractName": "Payroll",
  "abi": [
    {
      "constant": true,
      "inputs": [],
      "name": "totalSalary",
      "outputs": [
        {
          "name": "",
          "type": "uint256"
        }
      ],
      "payable": false,
      "stateMutability": "view",
      "type": "function"
    },
    {
      "constant": true,
      "inputs": [],
      "name": "owner",
      "outputs": [
        {
          "name": "",
          "type": "address"
        }
      ],
      "payable": false,
      "stateMutability": "view",
      "type": "function"
    },
    {
      "constant": true,
      "inputs": [
        {
          "name": "",
          "type": "address"
        }
      ],
      "name": "employees",
      "outputs": [
        {
          "name": "index",
          "type": "uint256"
        },
        {
          "name": "salary",
          "type": "uint256"
        },
        {
          "name": "lastPayday",
          "type": "uint256"
        }
      ],
      "payable": false,
      "stateMutability": "view",
      "type": "function"
    },
    {
      "constant": false,
      "inputs": [
        {
          "name": "newOwner",
          "type": "address"
        }
      ],
      "name": "transferOwnership",
      "outputs": [],
      "payable": false,
      "stateMutability": "nonpayable",
      "type": "function"
    },
    {
      "inputs": [],
      "payable": true,
      "stateMutability": "payable",
      "type": "constructor"
    },
    {
      "anonymous": false,
      "inputs": [
        {
          "indexed": true,
          "name": "from",
          "type": "address"
        },
        {
          "indexed": false,
          "name": "value",
          "type": "uint256"
        }
      ],
      "name": "AddFund",
      "type": "event"
    },
    {
      "anonymous": false,
      "inputs": [
        {
          "indexed": true,
          "name": "employee",
          "type": "address"
        },
        {
          "indexed": false,
          "name": "value",
          "type": "uint256"
        }
      ],
      "name": "GetPaid",
      "type": "event"
    },
    {
      "anonymous": false,
      "inputs": [
        {
          "indexed": true,
          "name": "from",
          "type": "address"
        },
        {
          "indexed": true,
          "name": "employee",
          "type": "address"
        },
        {
          "indexed": false,
          "name": "salary",
          "type": "uint256"
        }
      ],
      "name": "AddEmployee",
      "type": "event"
    },
    {
      "anonymous": false,
      "inputs": [
        {
          "indexed": true,
          "name": "from",
          "type": "address"
        },
        {
          "indexed": true,
          "name": "employee",
          "type": "address"
        },
        {
          "indexed": false,
          "name": "salary",
          "type": "uint256"
        }
      ],
      "name": "UpdateEmployee",
      "type": "event"
    },
    {
      "anonymous": false,
      "inputs": [
        {
          "indexed": true,
          "name": "from",
          "type": "address"
        },
        {
          "indexed": true,
          "name": "removed",
          "type": "address"
        }
      ],
      "name": "RemoveEmployee",
      "type": "event"
    },
    {
      "anonymous": false,
      "inputs": [
        {
          "indexed": true,
          "name": "previousOwner",
          "type": "address"
        },
        {
          "indexed": true,
          "name": "newOwner",
          "type": "address"
        }
      ],
      "name": "OwnershipTransferred",
      "type": "event"
    },
    {
      "constant": false,
      "inputs": [
        {
          "name": "employeeId",
          "type": "address"
        },
        {
          "name": "salary",
          "type": "uint256"
        }
      ],
      "name": "addEmployee",
      "outputs": [],
      "payable": false,
      "stateMutability": "nonpayable",
      "type": "function"
    },
    {
      "constant": false,
      "inputs": [
        {
          "name": "employeeId",
          "type": "address"
        }
      ],
      "name": "removeEmployee",
      "outputs": [],
      "payable": false,
      "stateMutability": "nonpayable",
      "type": "function"
    },
    {
      "constant": false,
      "inputs": [
        {
          "name": "oldAddress",
          "type": "address"
        },
        {
          "name": "newAddress",
          "type": "address"
        }
      ],
      "name": "changePaymentAddress",
      "outputs": [],
      "payable": false,
      "stateMutability": "nonpayable",
      "type": "function"
    },
    {
      "constant": false,
      "inputs": [
        {
          "name": "employeeId",
          "type": "address"
        },
        {
          "name": "salary",
          "type": "uint256"
        }
      ],
      "name": "updateEmployee",
      "outputs": [],
      "payable": false,
      "stateMutability": "nonpayable",
      "type": "function"
    },
    {
      "constant": false,
      "inputs": [],
      "name": "addFund",
      "outputs": [
        {
          "name": "",
          "type": "uint256"
        }
      ],
      "payable": true,
      "stateMutability": "payable",
      "type": "function"
    },
    {
      "constant": true,
      "inputs": [],
      "name": "calculateRunway",
      "outputs": [
        {
          "name": "",
          "type": "uint256"
        }
      ],
      "payable": false,
      "stateMutability": "view",
      "type": "function"
    },
    {
      "constant": true,
      "inputs": [],
      "name": "hasEnoughFund",
      "outputs": [
        {
          "name": "",
          "type": "bool"
        }
      ],
      "payable": false,
      "stateMutability": "view",
      "type": "function"
    },
    {
      "constant": false,
      "inputs": [],
      "name": "getPaid",
      "outputs": [],
      "payable": false,
      "stateMutability": "nonpayable",
      "type": "function"
    },
    {
      "constant": true,
      "inputs": [],
      "name": "getEmployerInfo",
      "outputs": [
        {
          "name": "balance",
          "type": "uint256"
        },
        {
          "name": "runway",
          "type": "uint256"
        },
        {
          "name": "employeeCount",
          "type": "uint256"
        }
      ],
      "payable": false,
      "stateMutability": "view",
      "type": "function"
    },
    {
      "constant": true,
      "inputs": [
        {
          "name": "index",
          "type": "uint256"
        }
      ],
      "name": "getEmployeeInfo",
      "outputs": [
        {
          "name": "employeeAddress",
          "type": "address"
        },
        {
          "name": "salary",
          "type": "uint256"
        },
        {
          "name": "lastPayday",
          "type": "uint256"
        },
        {
          "name": "balance",
          "type": "uint256"
        }
      ],
      "payable": false,
      "stateMutability": "view",
      "type": "function"
    },
    {
      "constant": true,
      "inputs": [
        {
          "name": "id",
          "type": "address"
        }
      ],
      "name": "getEmployeeInfoById",
      "outputs": [
        {
          "name": "salary",
          "type": "uint256"
        },
        {
          "name": "lastPayday",
          "type": "uint256"
        },
        {
          "name": "balance",
          "type": "uint256"
        }
      ],
      "payable": false,
      "stateMutability": "view",
      "type": "function"
    }
  ],
  "bytecode": "0x60606040526000600155336000806101000a81548173ffffffffffffffffffffffffffffffffffffffff021916908373ffffffffffffffffffffffffffffffffffffffff160217905550336000806101000a81548173ffffffffffffffffffffffffffffffffffffffff021916908373ffffffffffffffffffffffffffffffffffffffff16021790555061175e806100986000396000f3006060604052600436106100db576000357c0100000000000000000000000000000000000000000000000000000000900463ffffffff16806323fed09e146100e05780632e46eb1d1461010d5780634ec19512146101365780635e91d8ec1461015f5780638da5cb5b146101a15780638ef8f241146101f6578063a2f09dfa1461022d578063bc456c421461024b578063cf41d6f8146102a3578063d0678947146102b8578063d108177a14610313578063e7fd9a131461034c578063f2fde38b1461038e578063f6757cff146103c7578063fc5378bb1461043f575b600080fd5b34156100eb57600080fd5b6100f361049a565b604051808215151515815260200191505060405180910390f35b341561011857600080fd5b6101206104ab565b6040518082815260200191505060405180910390f35b341561014157600080fd5b6101496104b1565b6040518082815260200191505060405180910390f35b341561016a57600080fd5b61019f600480803573ffffffffffffffffffffffffffffffffffffffff169060200190919080359060200190919050506104f8565b005b34156101ac57600080fd5b6101b4610735565b604051808273ffffffffffffffffffffffffffffffffffffffff1673ffffffffffffffffffffffffffffffffffffffff16815260200191505060405180910390f35b341561020157600080fd5b61020961075a565b60405180848152602001838152602001828152602001935050505060405180910390f35b610235610790565b6040518082815260200191505060405180910390f35b341561025657600080fd5b6102a1600480803573ffffffffffffffffffffffffffffffffffffffff1690602001909190803573ffffffffffffffffffffffffffffffffffffffff169060200190919050506107fd565b005b34156102ae57600080fd5b6102b6610a60565b005b34156102c357600080fd5b6102ef600480803573ffffffffffffffffffffffffffffffffffffffff16906020019091905050610c77565b60405180848152602001838152602001828152602001935050505060405180910390f35b341561031e57600080fd5b61034a600480803573ffffffffffffffffffffffffffffffffffffffff16906020019091905050610ca1565b005b341561035757600080fd5b61038c600480803573ffffffffffffffffffffffffffffffffffffffff16906020019091908035906020019091905050610ff5565b005b341561039957600080fd5b6103c5600480803573ffffffffffffffffffffffffffffffffffffffff1690602001909190505061122b565b005b34156103d257600080fd5b6103e86004808035906020019091905050611380565b604051808573ffffffffffffffffffffffffffffffffffffffff1673ffffffffffffffffffffffffffffffffffffffff16815260200184815260200183815260200182815260200194505050505060405180910390f35b341561044a57600080fd5b610476600480803573ffffffffffffffffffffffffffffffffffffffff16906020019091905050611474565b60405180848152602001838152602001828152602001935050505060405180910390f35b6000806104a56104b1565b11905090565b60015481565b60008060015414156104c657600090506104f5565b6104f26001543073ffffffffffffffffffffffffffffffffffffffff163161152490919063ffffffff16565b90505b90565b60008060009054906101000a900473ffffffffffffffffffffffffffffffffffffffff1673ffffffffffffffffffffffffffffffffffffffff163373ffffffffffffffffffffffffffffffffffffffff1614151561055557600080fd5b826000600360008373ffffffffffffffffffffffffffffffffffffffff1673ffffffffffffffffffffffffffffffffffffffff16815260200190815260200160002060020154141515156105a557fe5b6105ae8461153f565b600360008573ffffffffffffffffffffffffffffffffffffffff1673ffffffffffffffffffffffffffffffffffffffff16815260200190815260200160002060010154915061060e670de0b6b3a76400008461164390919063ffffffff16565b925082600360008673ffffffffffffffffffffffffffffffffffffffff1673ffffffffffffffffffffffffffffffffffffffff1681526020019081526020016000206001018190555042600360008673ffffffffffffffffffffffffffffffffffffffff1673ffffffffffffffffffffffffffffffffffffffff168152602001908152602001600020600201819055506106c5826106b78560015461167e90919063ffffffff16565b61169c90919063ffffffff16565b6001819055508373ffffffffffffffffffffffffffffffffffffffff163373ffffffffffffffffffffffffffffffffffffffff167eabb30ee5dd471f27161ac580cf2589ae5900f7a641ec81837c023a643aa33a856040518082815260200191505060405180910390a350505050565b6000809054906101000a900473ffffffffffffffffffffffffffffffffffffffff1681565b60008060003073ffffffffffffffffffffffffffffffffffffffff163192506107816104b1565b91506002805490509050909192565b60003373ffffffffffffffffffffffffffffffffffffffff167f85475feba15e127a3c020e9ed07784e81fa905ad45771316e168bf8e0784f884346040518082815260200191505060405180910390a23073ffffffffffffffffffffffffffffffffffffffff1631905090565b6000809054906101000a900473ffffffffffffffffffffffffffffffffffffffff1673ffffffffffffffffffffffffffffffffffffffff163373ffffffffffffffffffffffffffffffffffffffff1614151561085857600080fd5b816000600360008373ffffffffffffffffffffffffffffffffffffffff1673ffffffffffffffffffffffffffffffffffffffff16815260200190815260200160002060020154141515156108a857fe5b816000600360008373ffffffffffffffffffffffffffffffffffffffff1673ffffffffffffffffffffffffffffffffffffffff168152602001908152602001600020600201541415156108f757fe5b6109008461153f565b606060405190810160405280600360008773ffffffffffffffffffffffffffffffffffffffff1673ffffffffffffffffffffffffffffffffffffffff168152602001908152602001600020600001548152602001600360008773ffffffffffffffffffffffffffffffffffffffff1673ffffffffffffffffffffffffffffffffffffffff16815260200190815260200160002060010154815260200142815250600360008573ffffffffffffffffffffffffffffffffffffffff1673ffffffffffffffffffffffffffffffffffffffff168152602001908152602001600020600082015181600001556020820151816001015560408201518160020155905050600360008573ffffffffffffffffffffffffffffffffffffffff1673ffffffffffffffffffffffffffffffffffffffff16815260200190815260200160002060008082016000905560018201600090556002820160009055505050505050565b600080336000600360008373ffffffffffffffffffffffffffffffffffffffff1673ffffffffffffffffffffffffffffffffffffffff1681526020019081526020016000206002015414151515610ab357fe5b339250610b0c600a600360008673ffffffffffffffffffffffffffffffffffffffff1673ffffffffffffffffffffffffffffffffffffffff1681526020019081526020016000206002015461167e90919063ffffffff16565b91504282101515610b1957fe5b81600360008573ffffffffffffffffffffffffffffffffffffffff1673ffffffffffffffffffffffffffffffffffffffff168152602001908152602001600020600201819055508273ffffffffffffffffffffffffffffffffffffffff166108fc600360008673ffffffffffffffffffffffffffffffffffffffff1673ffffffffffffffffffffffffffffffffffffffff168152602001908152602001600020600101549081150290604051600060405180830381858888f193505050501515610be257600080fd5b3373ffffffffffffffffffffffffffffffffffffffff167f6316f060ea43ea4ad36e9f21ea77e0e4c9474d149c4011c8957b8fe2c9061c31600360008673ffffffffffffffffffffffffffffffffffffffff1673ffffffffffffffffffffffffffffffffffffffff168152602001908152602001600020600101546040518082815260200191505060405180910390a2505050565b60036020528060005260406000206000915090508060000154908060010154908060020154905083565b60008060008060009054906101000a900473ffffffffffffffffffffffffffffffffffffffff1673ffffffffffffffffffffffffffffffffffffffff163373ffffffffffffffffffffffffffffffffffffffff16141515610d0157600080fd5b836000600360008373ffffffffffffffffffffffffffffffffffffffff1673ffffffffffffffffffffffffffffffffffffffff1681526020019081526020016000206002015414151515610d5157fe5b610d5a8561153f565b600360008673ffffffffffffffffffffffffffffffffffffffff1673ffffffffffffffffffffffffffffffffffffffff168152602001908152602001600020600101549350600360008673ffffffffffffffffffffffffffffffffffffffff1673ffffffffffffffffffffffffffffffffffffffff168152602001908152602001600020600001549250610df98460015461169c90919063ffffffff16565b600181905550600360008673ffffffffffffffffffffffffffffffffffffffff1673ffffffffffffffffffffffffffffffffffffffff168152602001908152602001600020600080820160009055600182016000905560028201600090555050600283815481101515610e6857fe5b906000526020600020900160006101000a81549073ffffffffffffffffffffffffffffffffffffffff02191690556002600160028054905003815481101515610ead57fe5b906000526020600020900160009054906101000a900473ffffffffffffffffffffffffffffffffffffffff16915081600284815481101515610eeb57fe5b906000526020600020900160006101000a81548173ffffffffffffffffffffffffffffffffffffffff021916908373ffffffffffffffffffffffffffffffffffffffff16021790555082600360008473ffffffffffffffffffffffffffffffffffffffff1673ffffffffffffffffffffffffffffffffffffffff168152602001908152602001600020600001819055506001600281818054905003915081610f9391906116b5565b508473ffffffffffffffffffffffffffffffffffffffff163373ffffffffffffffffffffffffffffffffffffffff167f2addb317b82f54c3cfe26d79d287fdf8c85a0586f58f5df491428d1e5039e49060405160405180910390a35050505050565b60008060009054906101000a900473ffffffffffffffffffffffffffffffffffffffff1673ffffffffffffffffffffffffffffffffffffffff163373ffffffffffffffffffffffffffffffffffffffff1614151561105257600080fd5b826000600360008373ffffffffffffffffffffffffffffffffffffffff1673ffffffffffffffffffffffffffffffffffffffff168152602001908152602001600020600201541415156110a157fe5b6110bc670de0b6b3a76400008461164390919063ffffffff16565b92506002805490509150600280548060010182816110da91906116e1565b9160005260206000209001600086909190916101000a81548173ffffffffffffffffffffffffffffffffffffffff021916908373ffffffffffffffffffffffffffffffffffffffff1602179055505060606040519081016040528083815260200184815260200142815250600360008673ffffffffffffffffffffffffffffffffffffffff1673ffffffffffffffffffffffffffffffffffffffff1681526020019081526020016000206000820151816000015560208201518160010155604082015181600201559050506111ba8360015461167e90919063ffffffff16565b6001819055508373ffffffffffffffffffffffffffffffffffffffff163373ffffffffffffffffffffffffffffffffffffffff167fe693f3f4319c11111a1c24c16bc68b0d50cf5f310f5545c83cc78267c831dcbf856040518082815260200191505060405180910390a350505050565b6000809054906101000a900473ffffffffffffffffffffffffffffffffffffffff1673ffffffffffffffffffffffffffffffffffffffff163373ffffffffffffffffffffffffffffffffffffffff1614151561128657600080fd5b600073ffffffffffffffffffffffffffffffffffffffff168173ffffffffffffffffffffffffffffffffffffffff16141515156112c257600080fd5b8073ffffffffffffffffffffffffffffffffffffffff166000809054906101000a900473ffffffffffffffffffffffffffffffffffffffff1673ffffffffffffffffffffffffffffffffffffffff167f8be0079c531659141344cd1fd0a4f28419497f9722a3daafe3b4186f6b6457e060405160405180910390a3806000806101000a81548173ffffffffffffffffffffffffffffffffffffffff021916908373ffffffffffffffffffffffffffffffffffffffff16021790555050565b600080600080600060028681548110151561139757fe5b906000526020600020900160009054906101000a900473ffffffffffffffffffffffffffffffffffffffff169050809450600360008273ffffffffffffffffffffffffffffffffffffffff1673ffffffffffffffffffffffffffffffffffffffff168152602001908152602001600020600101549350600360008273ffffffffffffffffffffffffffffffffffffffff1673ffffffffffffffffffffffffffffffffffffffff1681526020019081526020016000206002015492508073ffffffffffffffffffffffffffffffffffffffff16319150509193509193565b6000806000600360008573ffffffffffffffffffffffffffffffffffffffff1673ffffffffffffffffffffffffffffffffffffffff168152602001908152602001600020600101549250600360008573ffffffffffffffffffffffffffffffffffffffff1673ffffffffffffffffffffffffffffffffffffffff1681526020019081526020016000206002015491508373ffffffffffffffffffffffffffffffffffffffff163190509193909250565b600080828481151561153257fe5b0490508091505092915050565b60006115fd600a6115ef61159e600360008773ffffffffffffffffffffffffffffffffffffffff1673ffffffffffffffffffffffffffffffffffffffff168152602001908152602001600020600201544261169c90919063ffffffff16565b600360008773ffffffffffffffffffffffffffffffffffffffff1673ffffffffffffffffffffffffffffffffffffffff1681526020019081526020016000206001015461164390919063ffffffff16565b61152490919063ffffffff16565b90508173ffffffffffffffffffffffffffffffffffffffff166108fc829081150290604051600060405180830381858888f19350505050151561163f57600080fd5b5050565b60008060008414156116585760009150611677565b828402905082848281151561166957fe5b0414151561167357fe5b8091505b5092915050565b600080828401905083811015151561169257fe5b8091505092915050565b60008282111515156116aa57fe5b818303905092915050565b8154818355818115116116dc578183600052602060002091820191016116db919061170d565b5b505050565b81548183558181151161170857818360005260206000209182019101611707919061170d565b5b505050565b61172f91905b8082111561172b576000816000905550600101611713565b5090565b905600a165627a7a72305820298809c2c362f25ea6bdc1708e1815ddac4b8748f8a6f0506a31a013c7d8e9080029",
  "source": "pragma solidity ^0.4.17;\n\nimport './SafeMath.sol';\nimport './Ownable.sol';\n\ncontract Payroll is Ownable {\n\n    event AddFund(address indexed from, uint value);\n    event GetPaid(address indexed employee, uint value);\n    event AddEmployee(address indexed from, address indexed employee, uint salary);\n    event UpdateEmployee(address indexed from, address indexed employee, uint salary);\n    event RemoveEmployee(address indexed from, address indexed removed);\n\n    using SafeMath for uint;\n\n    /**\n     * We are using mapping here, the key is already the address.\n     */\n    struct Employee {\n        uint index;\n        uint salary;\n        uint lastPayday;\n    }\n\n    modifier onlyOwner {\n        require(msg.sender == owner);\n        _;\n    }\n\n    modifier shouldExist(address employeeId) {\n        assert(employees[employeeId].lastPayday != 0);\n        _;\n    }\n\n    modifier shouldNotExist(address employeeId) {\n        assert(employees[employeeId].lastPayday == 0);\n        _;\n    }\n\n    uint constant PAY_DURATION = 10 seconds;\n    uint public totalSalary = 0;\n    address[] employeeAddressList;\n\n    /**\n     * This contract is simple, We update employees by the key directly\n     * instead of updating a copy so that we could save some gas.\n     */\n    mapping(address => Employee) public employees;\n\n    function Payroll() payable public Ownable {\n        owner = msg.sender;\n    }\n\n    function _partialPaid(address employeeId) private {\n        uint payment = employees[employeeId].salary\n        .mul(now.sub(employees[employeeId].lastPayday))\n        .div(PAY_DURATION);\n        employeeId.transfer(payment);\n    }\n\n    function addEmployee(address employeeId, uint salary) public onlyOwner shouldNotExist(employeeId) {\n        salary = salary.mul(1 ether);\n\n        uint index = employeeAddressList.length;\n        employeeAddressList.push(employeeId);\n        employees[employeeId] = Employee(index, salary, now);\n\n        totalSalary = totalSalary.add(salary);\n        AddEmployee(msg.sender, employeeId, salary);\n    }\n\n    function removeEmployee(address employeeId) public onlyOwner shouldExist(employeeId) {\n        _partialPaid(employeeId);\n\n        uint salary = employees[employeeId].salary;\n        uint index = employees[employeeId].index;\n        totalSalary = totalSalary.sub(salary);\n\n        delete employees[employeeId];\n\n        delete employeeAddressList[index];\n        address moveAddress = employeeAddressList[employeeAddressList.length - 1];\n        employeeAddressList[index] = moveAddress;\n\n        // update index\n        employees[moveAddress].index = index;\n\n        // adjust length\n        employeeAddressList.length -= 1;\n        RemoveEmployee(msg.sender, employeeId);\n    }\n\n    function changePaymentAddress(address oldAddress, address newAddress) public onlyOwner shouldExist(oldAddress) shouldNotExist(newAddress) {\n        _partialPaid(oldAddress);\n\n        employees[newAddress] = Employee(employees[oldAddress].index, employees[oldAddress].salary, now);\n        delete employees[oldAddress];\n    }\n\n    function updateEmployee(address employeeId, uint salary) public onlyOwner shouldExist(employeeId) {\n        _partialPaid(employeeId);\n\n        uint oldSalary = employees[employeeId].salary;\n        salary = salary.mul(1 ether);\n\n        employees[employeeId].salary = salary;\n        employees[employeeId].lastPayday = now;\n        totalSalary = totalSalary.add(salary).sub(oldSalary);\n\n        UpdateEmployee(msg.sender, employeeId, salary);\n    }\n\n    function addFund() payable public returns (uint) {\n        AddFund(msg.sender, msg.value);\n        return address(this).balance;\n    }\n\n    function calculateRunway() public view returns (uint) {\n        if (totalSalary == 0) {\n            return 0;\n        }\n        return address(this).balance.div(totalSalary);\n    }\n\n    function hasEnoughFund() public view returns (bool) {\n        return calculateRunway() > 0;\n    }\n\n    function getPaid() public shouldExist(msg.sender) {\n        address employeeId = msg.sender;\n\n        uint nextPayday = employees[employeeId].lastPayday.add(PAY_DURATION);\n        assert(nextPayday < now);\n\n        employees[employeeId].lastPayday = nextPayday;\n        employeeId.transfer(employees[employeeId].salary);\n        GetPaid(msg.sender, employees[employeeId].salary);\n    }\n\n    function getEmployerInfo() view public returns (uint balance, uint runway, uint employeeCount) {\n        balance = address(this).balance;\n        runway = calculateRunway();\n        employeeCount = employeeAddressList.length;\n    }\n\n    function getEmployeeInfo(uint index) view public returns (address employeeAddress, uint salary, uint lastPayday, uint balance) {\n        address id = employeeAddressList[index];\n        employeeAddress = id;\n        salary = employees[id].salary;\n        lastPayday = employees[id].lastPayday;\n        balance = address(id).balance;\n    }\n\n    function getEmployeeInfoById(address id) view public returns (uint salary, uint lastPayday, uint balance) {\n        salary = employees[id].salary;\n        lastPayday = employees[id].lastPayday;\n        balance = address(id).balance;\n    }\n}",
  "sourcePath": "/opt/src/lesson-6/contracts/Payroll.sol",
  "compiler": {
    "name": "solc",
    "version": "0.4.19+commit.c4cbbb05.Emscripten.clang"
  },
  "schemaVersion": "2.0.0",
  "updatedAt": "2018-04-01T01:47:55.341Z"
}