{
  "contractName": "Attacker",
  "abi": [
    {
      "constant": false,
      "inputs": [],
      "name": "observe",
      "outputs": [],
      "payable": false,
      "stateMutability": "nonpayable",
      "type": "function"
    }
  ],
  "bytecode": "0x60606040523415600e57600080fd5b60848061001c6000396000f300606060405260043610603f576000357c0100000000000000000000000000000000000000000000000000000000900463ffffffff16806314fc78fc146044575b600080fd5b3415604e57600080fd5b60546056565b005b5600a165627a7a72305820681b34883ee509e95b4ea6289c9ea22a5d067c5346dbc527538f2f8c7ed23c7f0029",
  "source": "pragma solidity ^0.4.17;\n\ncontract Attacker {\n    function observe() {\n    }\n}\n",
  "sourcePath": "/opt/src/lesson-7/contracts/Attacker.sol",
  "compiler": {
    "name": "solc",
    "version": "0.4.19+commit.c4cbbb05.Emscripten.clang"
  },
  "schemaVersion": "2.0.0",
  "updatedAt": "2018-04-04T10:12:05.988Z"
}