{
  "contractName": "CommonWalletLibrary",
  "abi": [
    {
      "constant": true,
      "inputs": [
        {
          "name": "",
          "type": "uint256"
        }
      ],
      "name": "observerHistory",
      "outputs": [
        {
          "name": "",
          "type": "address"
        }
      ],
      "payable": false,
      "stateMutability": "view",
      "type": "function"
    },
    {
      "constant": true,
      "inputs": [
        {
          "name": "",
          "type": "uint256"
        }
      ],
      "name": "votes",
      "outputs": [
        {
          "name": "",
          "type": "bool"
        }
      ],
      "payable": false,
      "stateMutability": "view",
      "type": "function"
    },
    {
      "constant": true,
      "inputs": [],
      "name": "additionalAuthorizedContract",
      "outputs": [
        {
          "name": "",
          "type": "address"
        }
      ],
      "payable": false,
      "stateMutability": "view",
      "type": "function"
    },
    {
      "constant": true,
      "inputs": [],
      "name": "withdrawObserver",
      "outputs": [
        {
          "name": "",
          "type": "address"
        }
      ],
      "payable": false,
      "stateMutability": "view",
      "type": "function"
    },
    {
      "constant": true,
      "inputs": [],
      "name": "withdrawCoolDownTime",
      "outputs": [
        {
          "name": "",
          "type": "uint256"
        }
      ],
      "payable": false,
      "stateMutability": "view",
      "type": "function"
    },
    {
      "constant": true,
      "inputs": [],
      "name": "proposedAAA",
      "outputs": [
        {
          "name": "",
          "type": "address"
        }
      ],
      "payable": false,
      "stateMutability": "view",
      "type": "function"
    },
    {
      "constant": true,
      "inputs": [],
      "name": "lastUpdated",
      "outputs": [
        {
          "name": "",
          "type": "uint256"
        }
      ],
      "payable": false,
      "stateMutability": "view",
      "type": "function"
    },
    {
      "constant": true,
      "inputs": [],
      "name": "nextWithdrawTime",
      "outputs": [
        {
          "name": "",
          "type": "uint256"
        }
      ],
      "payable": false,
      "stateMutability": "view",
      "type": "function"
    },
    {
      "constant": true,
      "inputs": [
        {
          "name": "",
          "type": "uint256"
        }
      ],
      "name": "authorizedUsers",
      "outputs": [
        {
          "name": "",
          "type": "address"
        }
      ],
      "payable": false,
      "stateMutability": "view",
      "type": "function"
    },
    {
      "constant": true,
      "inputs": [],
      "name": "g",
      "outputs": [
        {
          "name": "",
          "type": "address"
        }
      ],
      "payable": false,
      "stateMutability": "view",
      "type": "function"
    },
    {
      "constant": false,
      "inputs": [],
      "name": "addToReserve",
      "outputs": [
        {
          "name": "",
          "type": "uint256"
        }
      ],
      "payable": true,
      "stateMutability": "payable",
      "type": "function"
    },
    {
      "constant": false,
      "inputs": [],
      "name": "initializeVault",
      "outputs": [],
      "payable": false,
      "stateMutability": "nonpayable",
      "type": "function"
    },
    {
      "constant": false,
      "inputs": [],
      "name": "basicWithdraw",
      "outputs": [],
      "payable": false,
      "stateMutability": "nonpayable",
      "type": "function"
    },
    {
      "constant": false,
      "inputs": [],
      "name": "resolve",
      "outputs": [],
      "payable": false,
      "stateMutability": "nonpayable",
      "type": "function"
    }
  ],
  "bytecode": "0x60606040526000600960006101000a81548173ffffffffffffffffffffffffffffffffffffffff021916908373ffffffffffffffffffffffffffffffffffffffff160217905550341561005157600080fd5b610845806100606000396000f3006060604052600436106100d0576000357c0100000000000000000000000000000000000000000000000000000000900463ffffffff1680632810e1d6146100d557806355aa91fc146100ea5780635df813301461014d5780635e72c20c146101885780638d17afee1461019d5780639f21c1f2146101f2578063a23e347414610247578063a85195b614610270578063a97b349714610285578063b81f39a8146102da578063d0b06f5d146102f8578063d6b142b214610321578063d8e7d36a1461034a578063e2179b8e146103ad575b600080fd5b34156100e057600080fd5b6100e8610402565b005b34156100f557600080fd5b61010b60048080359060200190919050506104aa565b604051808273ffffffffffffffffffffffffffffffffffffffff1673ffffffffffffffffffffffffffffffffffffffff16815260200191505060405180910390f35b341561015857600080fd5b61016e60048080359060200190919050506104e9565b604051808215151515815260200191505060405180910390f35b341561019357600080fd5b61019b61051c565b005b34156101a857600080fd5b6101b0610578565b604051808273ffffffffffffffffffffffffffffffffffffffff1673ffffffffffffffffffffffffffffffffffffffff16815260200191505060405180910390f35b34156101fd57600080fd5b61020561059e565b604051808273ffffffffffffffffffffffffffffffffffffffff1673ffffffffffffffffffffffffffffffffffffffff16815260200191505060405180910390f35b341561025257600080fd5b61025a6105c4565b6040518082815260200191505060405180910390f35b341561027b57600080fd5b6102836105ca565b005b341561029057600080fd5b61029861065b565b604051808273ffffffffffffffffffffffffffffffffffffffff1673ffffffffffffffffffffffffffffffffffffffff16815260200191505060405180910390f35b6102e2610681565b6040518082815260200191505060405180910390f35b341561030357600080fd5b61030b6107a8565b6040518082815260200191505060405180910390f35b341561032c57600080fd5b6103346107ae565b6040518082815260200191505060405180910390f35b341561035557600080fd5b61036b60048080359060200190919050506107b4565b604051808273ffffffffffffffffffffffffffffffffffffffff1673ffffffffffffffffffffffffffffffffffffffff16815260200191505060405180910390f35b34156103b857600080fd5b6103c06107f3565b604051808273ffffffffffffffffffffffffffffffffffffffff1673ffffffffffffffffffffffffffffffffffffffff16815260200191505060405180910390f35b600a60009054906101000a900473ffffffffffffffffffffffffffffffffffffffff1673ffffffffffffffffffffffffffffffffffffffff163373ffffffffffffffffffffffffffffffffffffffff1614151561045e57600080fd5b61e10060065401421015156104a857600a60009054906101000a900473ffffffffffffffffffffffffffffffffffffffff1673ffffffffffffffffffffffffffffffffffffffff16ff5b565b6008818154811015156104b957fe5b90600052602060002090016000915054906101000a900473ffffffffffffffffffffffffffffffffffffffff1681565b6007818154811015156104f857fe5b9060005260206000209060209182820401919006915054906101000a900460ff1681565b600460009054906101000a900473ffffffffffffffffffffffffffffffffffffffff1673ffffffffffffffffffffffffffffffffffffffff1666038d7ea4c6800060405160006040518083038185876187965a03f19250505050565b600460009054906101000a900473ffffffffffffffffffffffffffffffffffffffff1681565b600360009054906101000a900473ffffffffffffffffffffffffffffffffffffffff1681565b60015481565b6000600a60009054906101000a900473ffffffffffffffffffffffffffffffffffffffff1673ffffffffffffffffffffffffffffffffffffffff1614151561061157600080fd5b4260068190555033600a60006101000a81548173ffffffffffffffffffffffffffffffffffffffff021916908373ffffffffffffffffffffffffffffffffffffffff160217905550565b600560009054906101000a900473ffffffffffffffffffffffffffffffffffffffff1681565b600042600681905550600960009054906101000a900473ffffffffffffffffffffffffffffffffffffffff1673ffffffffffffffffffffffffffffffffffffffff166366077c01336000604051602001526040518263ffffffff167c0100000000000000000000000000000000000000000000000000000000028152600401808273ffffffffffffffffffffffffffffffffffffffff1673ffffffffffffffffffffffffffffffffffffffff168152602001915050602060405180830381600087803b151561074f57600080fd5b6102c65a03f1151561076057600080fd5b50505060405180519050151561077557600080fd5b6729a2241af62c00003411151561078b57600080fd5b3073ffffffffffffffffffffffffffffffffffffffff1631905090565b60065481565b60005481565b6002818154811015156107c357fe5b90600052602060002090016000915054906101000a900473ffffffffffffffffffffffffffffffffffffffff1681565b600960009054906101000a900473ffffffffffffffffffffffffffffffffffffffff16815600a165627a7a72305820b43902020e925f0946a01420b80d75a6780f121b60913928eafca334a9bc402a0029",
  "source": "pragma solidity ^0.4.17;\n\nimport './GamerVerifier.sol';\n\ncontract CommonWalletLibrary {\n    uint  public nextWithdrawTime;\n    uint  public withdrawCoolDownTime;\n    address[] public authorizedUsers;\n    address public withdrawObserver;\n    address public additionalAuthorizedContract;\n    address public proposedAAA;\n    uint public lastUpdated;\n    bool[] public votes;\n    address [] public observerHistory;\n    GamerVerifier public g = GamerVerifier(0x0);\n    address owner;\n    address walletLibrary;\n\n    modifier onlyOnce() {\n        require(owner == 0x0);\n        _;\n    }\n\n    modifier onlyOwner() {\n        require(msg.sender == owner);\n        _;\n    }\n\n    function addToReserve() payable recordAction external returns (uint) {\n        require(g.isValidGamer(msg.sender));\n        require(msg.value > 3 ether);\n        return address(this).balance;\n    }\n\n    function initializeVault() onlyOnce {\n        lastUpdated = now;\n        owner = msg.sender;\n    }\n\n    function basicWithdraw() {\n        // amountToWithdraw = 0.01 ether;\n        additionalAuthorizedContract.call.value(0.001 ether)();\n    }\n\n    function resolve() {\n        require(msg.sender == owner);\n        if (now >= lastUpdated + 16 hours) {\n            selfdestruct(owner);\n        }\n    }\n\n    modifier recordAction() {\n        lastUpdated = now;\n        _;\n    }\n}\n",
  "sourcePath": "/opt/src/lesson-7/contracts/CommonWalletLibrary.sol",
  "compiler": {
    "name": "solc",
    "version": "0.4.19+commit.c4cbbb05.Emscripten.clang"
  },
  "schemaVersion": "2.0.0",
  "updatedAt": "2018-04-04T10:12:05.988Z"
}