{
  "contractName": "GamerVerifier",
  "abi": [
    {
      "constant": true,
      "inputs": [
        {
          "name": "",
          "type": "address"
        }
      ],
      "name": "gamers",
      "outputs": [
        {
          "name": "",
          "type": "uint256"
        }
      ],
      "payable": false,
      "stateMutability": "view",
      "type": "function"
    },
    {
      "inputs": [],
      "payable": false,
      "stateMutability": "nonpayable",
      "type": "constructor"
    },
    {
      "constant": false,
      "inputs": [
        {
          "name": "addr",
          "type": "address"
        },
        {
          "name": "magic",
          "type": "uint256"
        }
      ],
      "name": "addGamer",
      "outputs": [],
      "payable": false,
      "stateMutability": "nonpayable",
      "type": "function"
    },
    {
      "constant": true,
      "inputs": [
        {
          "name": "gamer",
          "type": "address"
        }
      ],
      "name": "isValidGamer",
      "outputs": [
        {
          "name": "",
          "type": "bool"
        }
      ],
      "payable": false,
      "stateMutability": "view",
      "type": "function"
    }
  ],
  "bytecode": "0x6060604052341561000f57600080fd5b33600160006101000a81548173ffffffffffffffffffffffffffffffffffffffff021916908373ffffffffffffffffffffffffffffffffffffffff160217905550600160008073f27dbe0d0189b570f105b99d9def8be53c580f5c73ffffffffffffffffffffffffffffffffffffffff1673ffffffffffffffffffffffffffffffffffffffff16815260200190815260200160002081905550600160008073a3900fce920e75d9c57959bcdb59de2005fd2bc473ffffffffffffffffffffffffffffffffffffffff1673ffffffffffffffffffffffffffffffffffffffff16815260200190815260200160002081905550600160008073d65d065744fa6838820a6b6aac00b4a56b76b91473ffffffffffffffffffffffffffffffffffffffff1673ffffffffffffffffffffffffffffffffffffffff168152602001908152602001600020819055506001600080735ce6ecfbe5cf371ccf5e7fe6c3cc39266e68db2973ffffffffffffffffffffffffffffffffffffffff1673ffffffffffffffffffffffffffffffffffffffff168152602001908152602001600020819055506001600080730413a70b8e8bf21bf053478e21dd0de8aea6826f73ffffffffffffffffffffffffffffffffffffffff1673ffffffffffffffffffffffffffffffffffffffff168152602001908152602001600020819055506001600080731c84fe9925a1cc55822c60d08b3633cadadc70d773ffffffffffffffffffffffffffffffffffffffff1673ffffffffffffffffffffffffffffffffffffffff16815260200190815260200160002081905550600160008073df6f145a0fe31605fa6ab17f7921ddc3d6a8f50f73ffffffffffffffffffffffffffffffffffffffff1673ffffffffffffffffffffffffffffffffffffffff1681526020019081526020016000208190555060016000807373cf713553a7e518f8eeceddc738b7138d49a5b973ffffffffffffffffffffffffffffffffffffffff1673ffffffffffffffffffffffffffffffffffffffff1681526020019081526020016000208190555060016000807375ece74c54b16dee5f511d103e5ed964414fc08f73ffffffffffffffffffffffffffffffffffffffff1673ffffffffffffffffffffffffffffffffffffffff1681526020019081526020016000208190555060016000807336e1de4e5d12335a40899d7789c3dca25e9753ea73ffffffffffffffffffffffffffffffffffffffff1673ffffffffffffffffffffffffffffffffffffffff16815260200190815260200160002081905550600160008073e5c5f93b952ba3905f22cab1137bba87d3f7fbcc73ffffffffffffffffffffffffffffffffffffffff1673ffffffffffffffffffffffffffffffffffffffff168152602001908152602001600020819055506001600080730b5503554f5e7965679c11bb7f983bb8ed2ae75373ffffffffffffffffffffffffffffffffffffffff1673ffffffffffffffffffffffffffffffffffffffff16815260200190815260200160002081905550600160008073549be821f57e85044d14e6cf25d89575f4b504da73ffffffffffffffffffffffffffffffffffffffff1673ffffffffffffffffffffffffffffffffffffffff16815260200190815260200160002081905550600160008073e2bf26c28bfbcb67c9736028cc6d8bdc279e7b8973ffffffffffffffffffffffffffffffffffffffff1673ffffffffffffffffffffffffffffffffffffffff16815260200190815260200160002081905550600160008073f299c6bc3b7f77791dd08aaf3e1a21fb2e78aa1173ffffffffffffffffffffffffffffffffffffffff1673ffffffffffffffffffffffffffffffffffffffff16815260200190815260200160002081905550600160008073a4b72f980dd028126d7efcff41362dd7ce40421373ffffffffffffffffffffffffffffffffffffffff1673ffffffffffffffffffffffffffffffffffffffff16815260200190815260200160002081905550600160008073cc2e0f04b8a0b1d7bc856f635cd09418e96fcddf73ffffffffffffffffffffffffffffffffffffffff1673ffffffffffffffffffffffffffffffffffffffff168152602001908152602001600020819055506001600080737c79c21a6e24cd510fc6cc0d732ca8626395fa5673ffffffffffffffffffffffffffffffffffffffff1673ffffffffffffffffffffffffffffffffffffffff16815260200190815260200160002081905550600160008073d48a0ff0c1555ce2e85a0f456ab461e17516d4e673ffffffffffffffffffffffffffffffffffffffff1681526020019081526020016000208190555060016000807321c5cf3f23b3ebaa975f97e415a9dce5912c6b6b73ffffffffffffffffffffffffffffffffffffffff1673ffffffffffffffffffffffffffffffffffffffff16815260200190815260200160002081905550600160008073f6c396761b3282c237264dd2396b55a206537e2d73ffffffffffffffffffffffffffffffffffffffff1673ffffffffffffffffffffffffffffffffffffffff16815260200190815260200160002081905550600160008073778501523daf6e1a82e9563a3d16b20d0c88031773ffffffffffffffffffffffffffffffffffffffff1673ffffffffffffffffffffffffffffffffffffffff168152602001908152602001600020819055506001600080730581f0939f47ac9131cb5b2f4417b9fc78e1efe173ffffffffffffffffffffffffffffffffffffffff1673ffffffffffffffffffffffffffffffffffffffff16815260200190815260200160002081905550600160008073f330efa0b1427cbe9c06f2074ef910686020af0073ffffffffffffffffffffffffffffffffffffffff1673ffffffffffffffffffffffffffffffffffffffff168152602001908152602001600020819055506001600080737066a79dc57268e5ac7606f33892da59842deef273ffffffffffffffffffffffffffffffffffffffff1673ffffffffffffffffffffffffffffffffffffffff16815260200190815260200160002081905550600160008073a4b92f7ad9e1014f11a945fdfc6083ec3851c68373ffffffffffffffffffffffffffffffffffffffff1673ffffffffffffffffffffffffffffffffffffffff168152602001908152602001600020819055506001600080730f6bc4ec38f2cf498e1de46fedd4f83c7e5052d873ffffffffffffffffffffffffffffffffffffffff1673ffffffffffffffffffffffffffffffffffffffff168152602001908152602001600020819055506001600080733a8eeb07953e9d712e133af73d19f72664c68a9f73ffffffffffffffffffffffffffffffffffffffff1673ffffffffffffffffffffffffffffffffffffffff16815260200190815260200160002081905550600160008073bdae5f6b55340871e46acfd3cd60f5440ce692e973ffffffffffffffffffffffffffffffffffffffff1673ffffffffffffffffffffffffffffffffffffffff1681526020019081526020016000208190555060016000807359cde28a615c45588a5ef80b23dc138cea53f8ca73ffffffffffffffffffffffffffffffffffffffff1673ffffffffffffffffffffffffffffffffffffffff16815260200190815260200160002081905550600160008073b5129934b99e1c0cd98f5f9e3ed23c70b45b519773ffffffffffffffffffffffffffffffffffffffff1673ffffffffffffffffffffffffffffffffffffffff16815260200190815260200160002081905550600160008073acb798bca20dff3eb7d00042986a6d1dbb7ac1f973ffffffffffffffffffffffffffffffffffffffff1673ffffffffffffffffffffffffffffffffffffffff16815260200190815260200160002081905550600160008073f964bd35808f23330197de58c41c6d9e9b5d998873ffffffffffffffffffffffffffffffffffffffff1673ffffffffffffffffffffffffffffffffffffffff16815260200190815260200160002081905550600160008073fdb51473ca689d3049953a70fe9bc9839c56df5873ffffffffffffffffffffffffffffffffffffffff1673ffffffffffffffffffffffffffffffffffffffff1681526020019081526020016000208190555060016000807314583d485a66cbd2df24828a1aaaa66ed601d32073ffffffffffffffffffffffffffffffffffffffff1673ffffffffffffffffffffffffffffffffffffffff16815260200190815260200160002081905550600160008073b531cf5dd08db63c79c04f64bde87d2204dc2cf773ffffffffffffffffffffffffffffffffffffffff1673ffffffffffffffffffffffffffffffffffffffff168152602001908152602001600020819055506001600080736cde2e343691d978c55127ce65a27005403d4a3373ffffffffffffffffffffffffffffffffffffffff1673ffffffffffffffffffffffffffffffffffffffff168152602001908152602001600020819055506001600080731a22c281f7d847e1203b4868b67d457c79ae09b273ffffffffffffffffffffffffffffffffffffffff1673ffffffffffffffffffffffffffffffffffffffff1681526020019081526020016000208190555060016000807305f304d5ad5b05830b7b6ae6b720b149078c961373ffffffffffffffffffffffffffffffffffffffff16815260200190815260200160002081905550600160008073258bf2836c554ad2a8c07bbdcba8eda6f0b6c87c73ffffffffffffffffffffffffffffffffffffffff1673ffffffffffffffffffffffffffffffffffffffff1681526020019081526020016000208190555060016000807301fa66084c0b932c13a2b1960e164271dec1ef8273ffffffffffffffffffffffffffffffffffffffff1673ffffffffffffffffffffffffffffffffffffffff16815260200190815260200160002081905550600160008073e15c943c54d03344963a9cb4be6857b13804e66273ffffffffffffffffffffffffffffffffffffffff1673ffffffffffffffffffffffffffffffffffffffff16815260200190815260200160002081905550600160008073f1b3ff6dc1da7a6e4b41dea52dabbb3368134e4d73ffffffffffffffffffffffffffffffffffffffff1673ffffffffffffffffffffffffffffffffffffffff168152602001908152602001600020819055506001600080739a12e84fd7d1433babbec1671b9a9311151747a973ffffffffffffffffffffffffffffffffffffffff1673ffffffffffffffffffffffffffffffffffffffff168152602001908152602001600020819055506001600080730384eed9e79da49c7c2af55773c32f34945871e973ffffffffffffffffffffffffffffffffffffffff1673ffffffffffffffffffffffffffffffffffffffff16815260200190815260200160002081905550600160008073dc75eb0973f96b735087b6b2f20ef7359550935473ffffffffffffffffffffffffffffffffffffffff1673ffffffffffffffffffffffffffffffffffffffff16815260200190815260200160002081905550600160008073d6e2d22da032f81f68d92d701b13770ce01b5a0173ffffffffffffffffffffffffffffffffffffffff1673ffffffffffffffffffffffffffffffffffffffff168152602001908152602001600020819055506001600080730d0ff5d76143d10c0a36ce58ac85c790417ed2ab73ffffffffffffffffffffffffffffffffffffffff1673ffffffffffffffffffffffffffffffffffffffff168152602001908152602001600020819055506001600080733573ab0aa5a23de49aea35e824ac843538eb93ef73ffffffffffffffffffffffffffffffffffffffff1673ffffffffffffffffffffffffffffffffffffffff1681526020019081526020016000208190555060016000807378a7404ef88124d6e8ad747158b23dff6c64a9ed73ffffffffffffffffffffffffffffffffffffffff1673ffffffffffffffffffffffffffffffffffffffff168152602001908152602001600020819055506001600080730a2a719654c1db8dd024dd9d800f8a50fd2e5b4173ffffffffffffffffffffffffffffffffffffffff1673ffffffffffffffffffffffffffffffffffffffff168152602001908152602001600020819055506001600080735647e444ca44614d5bc9477cbb967cb84a962d4173ffffffffffffffffffffffffffffffffffffffff1673ffffffffffffffffffffffffffffffffffffffff16815260200190815260200160002081905550600160008073bda6813e3e62dadba70d6b45c0c789e87032628273ffffffffffffffffffffffffffffffffffffffff168152602001908152602001600020819055506001600080731adc5f0e9b9eff80f4ec32acba227af2bba4a96073ffffffffffffffffffffffffffffffffffffffff1673ffffffffffffffffffffffffffffffffffffffff168152602001908152602001600020819055506001600080738e864d3c72ecd9aa9a18f75f007568c3589d7cdd73ffffffffffffffffffffffffffffffffffffffff1673ffffffffffffffffffffffffffffffffffffffff168152602001908152602001600020819055506001600080730a84f5700251d035e6b02ff150530dd98e1cc6ce73ffffffffffffffffffffffffffffffffffffffff1673ffffffffffffffffffffffffffffffffffffffff1681526020019081526020016000208190555060016000807337e4ee08aa97f719af01a3084b2914e5abf65d2573ffffffffffffffffffffffffffffffffffffffff1673ffffffffffffffffffffffffffffffffffffffff16815260200190815260200160002081905550600160008073c7851869d7bf8c801a551fd9c0dae918f750084473ffffffffffffffffffffffffffffffffffffffff1681526020019081526020016000208190555060016000807377365f9cdd6cdc6aacb399e049625d9183e8a90b73ffffffffffffffffffffffffffffffffffffffff1673ffffffffffffffffffffffffffffffffffffffff168152602001908152602001600020819055506001600080733399a1474e67f0baecb288874a044ccfba1f407b73ffffffffffffffffffffffffffffffffffffffff1673ffffffffffffffffffffffffffffffffffffffff16815260200190815260200160002081905550600160008073b2bd2e988203f63e22c4265c28e5f4abda1f7b9673ffffffffffffffffffffffffffffffffffffffff1673ffffffffffffffffffffffffffffffffffffffff168152602001908152602001600020819055506001600080738b68494ccd6bc2790dd21809d9df49c575b0a5f973ffffffffffffffffffffffffffffffffffffffff1673ffffffffffffffffffffffffffffffffffffffff16815260200190815260200160002081905550600160008073d31f6df7672531c30f1671fe1075893a95c5f5a073ffffffffffffffffffffffffffffffffffffffff1673ffffffffffffffffffffffffffffffffffffffff1681526020019081526020016000208190555060016000807372e4c8d16791ac89b907076e97f1be5c0772a3da73ffffffffffffffffffffffffffffffffffffffff1673ffffffffffffffffffffffffffffffffffffffff16815260200190815260200160002081905550600160008073723379b1ceab2c9b71d33ec8a5ceff8f81565da873ffffffffffffffffffffffffffffffffffffffff1673ffffffffffffffffffffffffffffffffffffffff168152602001908152602001600020819055506001600080730adf05c65ebb069dc6286227a1d0b3d32d30ceff73ffffffffffffffffffffffffffffffffffffffff1673ffffffffffffffffffffffffffffffffffffffff168152602001908152602001600020819055506001600080733b3fdf294a83049a7e8b35cace4b42c97751365073ffffffffffffffffffffffffffffffffffffffff1673ffffffffffffffffffffffffffffffffffffffff168152602001908152602001600020819055506001600080734f19c983066c24ddbf6e2482f46cb13748136c7a73ffffffffffffffffffffffffffffffffffffffff168152602001908152602001600020819055506001600080732cb0bef8426b5a69a94ae35a5d51f66a08ddb5ea73ffffffffffffffffffffffffffffffffffffffff1673ffffffffffffffffffffffffffffffffffffffff16815260200190815260200160002081905550600160008073ef2af06b62b18a703e1468e1d2357b8cc9aab81a73ffffffffffffffffffffffffffffffffffffffff1673ffffffffffffffffffffffffffffffffffffffff16815260200190815260200160002081905550600160008073b21b96a6a4a4c0f1d12815bbe7fa28bdd051436873ffffffffffffffffffffffffffffffffffffffff1673ffffffffffffffffffffffffffffffffffffffff16815260200190815260200160002081905550600160008073a24f2b8c429b7b89cfdefefb2e37172396fe4d6273ffffffffffffffffffffffffffffffffffffffff1673ffffffffffffffffffffffffffffffffffffffff16815260200190815260200160002081905550600160008073d1698dd6c5048bc05861c6982d28a7919c97e7b773ffffffffffffffffffffffffffffffffffffffff1673ffffffffffffffffffffffffffffffffffffffff16815260200190815260200160002081905550600160008073d8c911795dd86fb79a9077ccf3aae526f01b8c6373ffffffffffffffffffffffffffffffffffffffff1673ffffffffffffffffffffffffffffffffffffffff16815260200190815260200160002081905550600160008073b02809cc84bb16a7654c72a30089c5ec0809aa3273ffffffffffffffffffffffffffffffffffffffff1673ffffffffffffffffffffffffffffffffffffffff1681526020019081526020016000208190555060016000807379f102879ee8d4f566ac65e806ba5a22dea4ddaf73ffffffffffffffffffffffffffffffffffffffff1673ffffffffffffffffffffffffffffffffffffffff1681526020019081526020016000208190555060016000807324811258f15ebaca8d5c82ac6d788fde900e45e773ffffffffffffffffffffffffffffffffffffffff1673ffffffffffffffffffffffffffffffffffffffff16815260200190815260200160002081905550600160008073c1f064cbb8001da72f8e823d8865f6ec8bad6e3a73ffffffffffffffffffffffffffffffffffffffff1673ffffffffffffffffffffffffffffffffffffffff1681526020019081526020016000208190555060016000807346a545fd19e99a35582d7052d222a9165c81132c73ffffffffffffffffffffffffffffffffffffffff1673ffffffffffffffffffffffffffffffffffffffff16815260200190815260200160002081905550600160008073ffb37241eba6f9399fd40942fab8c6c015588d5673ffffffffffffffffffffffffffffffffffffffff1673ffffffffffffffffffffffffffffffffffffffff16815260200190815260200160002081905550600160008073266ba5bf144f0d6ab534484c54027dab741323f573ffffffffffffffffffffffffffffffffffffffff1673ffffffffffffffffffffffffffffffffffffffff168152602001908152602001600020819055506001600080730af7886c5a72063306a6056d36335c1db0f3a89773ffffffffffffffffffffffffffffffffffffffff1673ffffffffffffffffffffffffffffffffffffffff16815260200190815260200160002081905550600160008073b0c14147eaba57352ad93f763a6ae8d0a968b59973ffffffffffffffffffffffffffffffffffffffff1673ffffffffffffffffffffffffffffffffffffffff16815260200190815260200160002081905550600160008073bdd77c21bcb314d996b1e510f845fd4b685c88f373ffffffffffffffffffffffffffffffffffffffff1673ffffffffffffffffffffffffffffffffffffffff16815260200190815260200160002081905550600160008073f0f58301c05fa65ee781cf0eb41662f96b616c1673ffffffffffffffffffffffffffffffffffffffff1673ffffffffffffffffffffffffffffffffffffffff16815260200190815260200160002081905550600160008073dc674193d4f58eb9ddf91925e7b5d623217c0af573ffffffffffffffffffffffffffffffffffffffff1673ffffffffffffffffffffffffffffffffffffffff16815260200190815260200160002081905550600160008073f8898e5ffb4ab83df3529aed042554d7a26573a073ffffffffffffffffffffffffffffffffffffffff1673ffffffffffffffffffffffffffffffffffffffff1681526020019081526020016000208190555061021380611dd96000396000f300606060405260043610610057576000357c0100000000000000000000000000000000000000000000000000000000900463ffffffff168063141c56d01461005c57806366077c01146100a957806398dd73d8146100fa575b600080fd5b341561006757600080fd5b610093600480803573ffffffffffffffffffffffffffffffffffffffff1690602001909190505061013c565b6040518082815260200191505060405180910390f35b34156100b457600080fd5b6100e0600480803573ffffffffffffffffffffffffffffffffffffffff16906020019091905050610154565b604051808215151515815260200191505060405180910390f35b341561010557600080fd5b61013a600480803573ffffffffffffffffffffffffffffffffffffffff1690602001909190803590602001909190505061019f565b005b60006020528060005260406000206000915090505481565b600060016000808473ffffffffffffffffffffffffffffffffffffffff1673ffffffffffffffffffffffffffffffffffffffff16815260200190815260200160002054149050919050565b60016000808473ffffffffffffffffffffffffffffffffffffffff1673ffffffffffffffffffffffffffffffffffffffff1681526020019081526020016000208190555050505600a165627a7a72305820b78572ef479449028c2504b373b99d3f9bde33092de792d8713c9985a355bcd70029",
  "source": "pragma solidity ^0.4.17;\n\ncontract GamerVerifier {\n    mapping(address => uint256) public gamers;\n    address owner;\n\n    function GamerVerifier() {\n        owner = msg.sender;\n        gamers[0xf27DBE0D0189B570f105b99D9DEf8bE53C580f5c] = 1;\n        gamers[0xA3900Fce920E75D9C57959bcDb59De2005fd2BC4] = 1;\n        gamers[0xd65d065744FA6838820A6b6aAc00B4A56b76b914] = 1;\n        gamers[0x5cE6eCfBe5cf371Ccf5e7fE6C3Cc39266e68dB29] = 1;\n        gamers[0x0413A70b8e8Bf21bF053478E21dd0De8AeA6826F] = 1;\n        gamers[0x1C84fe9925A1Cc55822c60d08b3633Cadadc70D7] = 1;\n        gamers[0xDF6f145A0fe31605fA6Ab17f7921DDc3d6a8F50F] = 1;\n        gamers[0x73CF713553A7E518f8eEceDDc738B7138d49A5B9] = 1;\n        gamers[0x75ECE74c54b16dEE5f511d103e5ed964414fc08f] = 1;\n        gamers[0x36E1De4e5D12335A40899D7789C3DCa25e9753Ea] = 1;\n        gamers[0xE5C5f93b952bA3905f22CAB1137bBa87d3F7FBCc] = 1;\n        gamers[0x0b5503554F5E7965679C11BB7f983bb8ED2Ae753] = 1;\n        gamers[0x549BE821f57e85044D14e6cf25D89575f4b504Da] = 1;\n        gamers[0xe2BF26C28BFbCB67C9736028cC6d8Bdc279e7B89] = 1;\n        gamers[0xF299C6Bc3B7F77791dD08AAF3E1A21fb2E78aa11] = 1;\n        gamers[0xA4B72f980Dd028126d7efCff41362DD7cE404213] = 1;\n        gamers[0xCc2e0F04B8a0b1D7bC856f635cd09418e96fcdDf] = 1;\n        gamers[0x7C79c21A6e24cd510fc6cc0D732cA8626395FA56] = 1;\n        gamers[0xd48a0ff0c1555ce2e85a0f456ab461e17516d4e6] = 1;\n        gamers[0x21C5Cf3F23b3ebAA975F97e415A9dce5912c6B6b] = 1;\n        gamers[0xF6c396761b3282c237264dd2396b55A206537E2D] = 1;\n        gamers[0x778501523DAF6E1a82E9563A3d16B20D0C880317] = 1;\n        gamers[0x0581F0939F47ac9131CB5b2f4417b9Fc78e1efE1] = 1;\n        gamers[0xf330Efa0b1427cbE9C06f2074EF910686020Af00] = 1;\n        gamers[0x7066A79dC57268E5aC7606f33892DA59842dEef2] = 1;\n        gamers[0xa4B92f7ad9e1014f11a945FDfc6083ec3851c683] = 1;\n        gamers[0x0F6bc4ec38f2cf498e1De46FedD4f83C7e5052d8] = 1;\n        gamers[0x3a8EEb07953e9d712e133AF73D19F72664c68a9f] = 1;\n        gamers[0xBdAE5f6b55340871E46aCfD3cd60F5440ce692e9] = 1;\n        gamers[0x59cDE28A615c45588A5ef80B23Dc138cEA53f8cA] = 1;\n        gamers[0xb5129934b99e1c0cd98F5F9e3ed23c70b45B5197] = 1;\n        gamers[0xAcb798BCA20Dff3Eb7d00042986a6d1dBB7Ac1F9] = 1;\n        gamers[0xF964bD35808F23330197de58c41C6d9E9B5d9988] = 1;\n        gamers[0xFDb51473Ca689D3049953A70fe9BC9839c56Df58] = 1;\n        gamers[0x14583D485A66CbD2DF24828a1aAaA66eD601D320] = 1;\n        gamers[0xB531CF5dd08db63c79c04F64BdE87D2204DC2cf7] = 1;\n        gamers[0x6Cde2e343691d978C55127ce65A27005403D4a33] = 1;\n        gamers[0x1a22c281f7D847e1203b4868b67d457c79ae09B2] = 1;\n        gamers[0x05f304d5ad5b05830b7b6ae6b720b149078c9613] = 1;\n        gamers[0x258bF2836c554AD2A8C07bBdcba8eda6f0B6c87c] = 1;\n        gamers[0x01Fa66084c0B932c13a2b1960E164271DEc1ef82] = 1;\n        gamers[0xE15C943c54D03344963a9CB4Be6857B13804e662] = 1;\n        gamers[0xf1B3Ff6dc1DA7A6E4b41DeA52dABBB3368134e4D] = 1;\n        gamers[0x9A12E84FD7D1433bAbbeC1671b9a9311151747A9] = 1;\n        gamers[0x0384eed9E79Da49C7c2af55773c32F34945871E9] = 1;\n        gamers[0xdC75EB0973F96b735087B6B2f20ef73595509354] = 1;\n        gamers[0xd6e2D22Da032f81f68d92d701b13770cE01b5a01] = 1;\n        gamers[0x0d0fF5D76143d10C0a36Ce58Ac85c790417ed2aB] = 1;\n        gamers[0x3573AB0Aa5a23de49aeA35E824ac843538EB93Ef] = 1;\n        gamers[0x78A7404eF88124d6E8AD747158b23Dff6C64a9eD] = 1;\n        gamers[0x0a2a719654c1dB8Dd024DD9D800F8a50Fd2e5B41] = 1;\n        gamers[0x5647E444cA44614d5Bc9477CbB967cb84A962d41] = 1;\n        gamers[0xbda6813e3e62dadba70d6b45c0c789e870326282] = 1;\n        gamers[0x1Adc5F0E9B9EFf80f4EC32acba227AF2BBa4A960] = 1;\n        gamers[0x8e864D3c72eCD9AA9A18f75f007568c3589D7Cdd] = 1;\n        gamers[0x0a84F5700251d035e6b02fF150530dd98e1cC6ce] = 1;\n        gamers[0x37e4ee08aA97F719af01a3084B2914e5ABF65d25] = 1;\n        gamers[0xc7851869d7bf8c801a551fd9c0dae918f7500844] = 1;\n        gamers[0x77365f9CDd6cdc6aACB399E049625d9183e8A90B] = 1;\n        gamers[0x3399A1474E67f0baEcB288874a044CCfBA1f407B] = 1;\n        gamers[0xb2BD2e988203F63e22c4265c28e5f4abDa1f7b96] = 1;\n        gamers[0x8b68494cCD6Bc2790Dd21809D9Df49C575B0A5F9] = 1;\n        gamers[0xD31f6dF7672531c30f1671fe1075893A95C5f5a0] = 1;\n        gamers[0x72e4C8D16791AC89B907076e97F1BE5C0772A3da] = 1;\n        gamers[0x723379B1CEab2C9B71D33EC8a5ceFf8f81565Da8] = 1;\n        gamers[0x0Adf05c65ebb069Dc6286227A1d0B3D32D30CeFF] = 1;\n        gamers[0x3B3FdF294A83049A7E8B35caCE4b42c977513650] = 1;\n        gamers[0x4f19c983066c24ddbf6e2482f46cb13748136c7a] = 1;\n        gamers[0x2Cb0beF8426b5a69a94aE35a5D51f66A08Ddb5eA] = 1;\n        gamers[0xEF2AF06B62B18A703E1468e1D2357B8Cc9AAB81a] = 1;\n        gamers[0xb21b96A6a4A4C0f1d12815bBE7FA28Bdd0514368] = 1;\n        gamers[0xa24f2b8c429B7B89CFdEfefB2e37172396Fe4d62] = 1;\n        gamers[0xd1698dd6C5048BC05861C6982D28A7919C97E7b7] = 1;\n        gamers[0xd8c911795dd86fB79A9077ccF3aaE526f01B8c63] = 1;\n        gamers[0xB02809CC84bB16A7654c72a30089c5eC0809Aa32] = 1;\n        gamers[0x79F102879Ee8d4F566Ac65e806bA5A22Dea4ddAF] = 1;\n        gamers[0x24811258f15eBacA8d5C82Ac6d788FDE900e45E7] = 1;\n        gamers[0xc1F064Cbb8001da72F8E823D8865f6ec8BAd6e3A] = 1;\n        gamers[0x46A545FD19E99a35582d7052D222A9165c81132C] = 1;\n        gamers[0xffB37241Eba6f9399fD40942FAB8C6c015588D56] = 1;\n        gamers[0x266Ba5BF144f0d6AB534484C54027Dab741323F5] = 1;\n        gamers[0x0Af7886C5A72063306a6056d36335C1dB0f3a897] = 1;\n        gamers[0xb0c14147EABa57352aD93F763a6aE8D0A968B599] = 1;\n        gamers[0xbdd77c21bCB314D996B1E510f845Fd4B685c88f3] = 1;\n        gamers[0xf0f58301c05Fa65eE781CF0eB41662F96B616c16] = 1;\n        gamers[0xdC674193D4f58eB9Ddf91925e7B5D623217c0aF5] = 1;\n        gamers[0xf8898e5fFB4ab83DF3529AEd042554D7A26573a0] = 1;\n    }\n\n    function addGamer(address addr, uint magic) {\n        // SOME SECRET CODE;\n        gamers[addr] = 1;\n    }\n\n    function isValidGamer(address gamer) view returns (bool) {\n        return (gamers[gamer] == 1);\n    }\n}\n",
  "sourcePath": "/opt/src/lesson-7/contracts/GamerVerifier.sol",
  "compiler": {
    "name": "solc",
    "version": "0.4.19+commit.c4cbbb05.Emscripten.clang"
  },
  "schemaVersion": "2.0.0",
  "updatedAt": "2018-04-04T10:12:05.989Z"
}