{
  "contractName": "TimeDelayedVault",
  "abi": [
    {
      "constant": true,
      "inputs": [
        {
          "name": "",
          "type": "uint256"
        }
      ],
      "name": "observerHistory",
      "outputs": [
        {
          "name": "",
          "type": "address"
        }
      ],
      "payable": false,
      "stateMutability": "view",
      "type": "function"
    },
    {
      "constant": true,
      "inputs": [
        {
          "name": "",
          "type": "uint256"
        }
      ],
      "name": "votes",
      "outputs": [
        {
          "name": "",
          "type": "bool"
        }
      ],
      "payable": false,
      "stateMutability": "view",
      "type": "function"
    },
    {
      "constant": false,
      "inputs": [],
      "name": "basicWithdraw",
      "outputs": [],
      "payable": false,
      "stateMutability": "nonpayable",
      "type": "function"
    },
    {
      "constant": true,
      "inputs": [],
      "name": "additionalAuthorizedContract",
      "outputs": [
        {
          "name": "",
          "type": "address"
        }
      ],
      "payable": false,
      "stateMutability": "view",
      "type": "function"
    },
    {
      "constant": true,
      "inputs": [],
      "name": "withdrawObserver",
      "outputs": [
        {
          "name": "",
          "type": "address"
        }
      ],
      "payable": false,
      "stateMutability": "view",
      "type": "function"
    },
    {
      "constant": true,
      "inputs": [],
      "name": "withdrawCoolDownTime",
      "outputs": [
        {
          "name": "",
          "type": "uint256"
        }
      ],
      "payable": false,
      "stateMutability": "view",
      "type": "function"
    },
    {
      "constant": false,
      "inputs": [],
      "name": "initializeVault",
      "outputs": [],
      "payable": false,
      "stateMutability": "nonpayable",
      "type": "function"
    },
    {
      "constant": true,
      "inputs": [],
      "name": "proposedAAA",
      "outputs": [
        {
          "name": "",
          "type": "address"
        }
      ],
      "payable": false,
      "stateMutability": "view",
      "type": "function"
    },
    {
      "constant": true,
      "inputs": [],
      "name": "lastUpdated",
      "outputs": [
        {
          "name": "",
          "type": "uint256"
        }
      ],
      "payable": false,
      "stateMutability": "view",
      "type": "function"
    },
    {
      "constant": true,
      "inputs": [],
      "name": "nextWithdrawTime",
      "outputs": [
        {
          "name": "",
          "type": "uint256"
        }
      ],
      "payable": false,
      "stateMutability": "view",
      "type": "function"
    },
    {
      "constant": true,
      "inputs": [
        {
          "name": "",
          "type": "uint256"
        }
      ],
      "name": "authorizedUsers",
      "outputs": [
        {
          "name": "",
          "type": "address"
        }
      ],
      "payable": false,
      "stateMutability": "view",
      "type": "function"
    },
    {
      "constant": true,
      "inputs": [],
      "name": "g",
      "outputs": [
        {
          "name": "",
          "type": "address"
        }
      ],
      "payable": false,
      "stateMutability": "view",
      "type": "function"
    },
    {
      "inputs": [
        {
          "name": "libAddress",
          "type": "address"
        }
      ],
      "payable": false,
      "stateMutability": "nonpayable",
      "type": "constructor"
    },
    {
      "constant": false,
      "inputs": [
        {
          "name": "ob",
          "type": "address"
        }
      ],
      "name": "setObserver",
      "outputs": [],
      "payable": false,
      "stateMutability": "nonpayable",
      "type": "function"
    },
    {
      "constant": false,
      "inputs": [],
      "name": "addToReserve",
      "outputs": [
        {
          "name": "",
          "type": "uint256"
        }
      ],
      "payable": true,
      "stateMutability": "payable",
      "type": "function"
    },
    {
      "constant": false,
      "inputs": [],
      "name": "withdrawFund",
      "outputs": [
        {
          "name": "",
          "type": "bool"
        }
      ],
      "payable": false,
      "stateMutability": "nonpayable",
      "type": "function"
    },
    {
      "constant": false,
      "inputs": [
        {
          "name": "votePosition",
          "type": "uint256"
        },
        {
          "name": "proposal",
          "type": "address"
        }
      ],
      "name": "addAuthorizedAccount",
      "outputs": [],
      "payable": false,
      "stateMutability": "nonpayable",
      "type": "function"
    },
    {
      "constant": false,
      "inputs": [],
      "name": "resolve",
      "outputs": [],
      "payable": false,
      "stateMutability": "nonpayable",
      "type": "function"
    },
    {
      "constant": false,
      "inputs": [],
      "name": "initilizeVault",
      "outputs": [],
      "payable": false,
      "stateMutability": "nonpayable",
      "type": "function"
    }
  ],
  "bytecode": "0x60606040526000600960006101000a81548173ffffffffffffffffffffffffffffffffffffffff021916908373ffffffffffffffffffffffffffffffffffffffff1602179055506000601560006101000a81548173ffffffffffffffffffffffffffffffffffffffff021916908373ffffffffffffffffffffffffffffffffffffffff160217905550341561009357600080fd5b604051602080620014f68339810160405280805190602001909190505060004260128190555042600c81905550610708600d8190555081601760006101000a81548173ffffffffffffffffffffffffffffffffffffffff021916908373ffffffffffffffffffffffffffffffffffffffff1602179055503073ffffffffffffffffffffffffffffffffffffffff1660405180807f696e697469616c697a655661756c742829000000000000000000000000000000815250601101905060405180910390207c010000000000000000000000000000000000000000000000000000000090046040518163ffffffff167c010000000000000000000000000000000000000000000000000000000002815260040160006040518083038160008761646e5a03f19250505050600090505b600e8054905081101561021f57601380548060010182816101e29190610226565b91600052602060002090602091828204019190066000909190916101000a81548160ff0219169083151502179055505080806001019150506101c1565b5050610285565b81548183558181151161025b57601f016020900481601f0160209004836000526020600020918201910161025a9190610260565b5b505050565b61028291905b8082111561027e576000816000905550600101610266565b5090565b90565b61126180620002956000396000f3006060604052600436106100fc576000357c0100000000000000000000000000000000000000000000000000000000900463ffffffff1680632810e1d6146101015780634e7407ea1461011657806355aa91fc1461012b5780635df813301461018e5780635e72c20c146101c95780638d17afee146101de57806394d9c9c7146102335780639f21c1f21461026c578063a23e3474146102c1578063a85195b6146102ea578063a97b3497146102ff578063b81f39a814610354578063d0b06f5d14610372578063d6b142b21461039b578063d8e7d36a146103c4578063e07fa3c114610427578063e2179b8e14610454578063f494b585146104a9575b600080fd5b341561010c57600080fd5b6101146104eb565b005b341561012157600080fd5b61012961061b565b005b341561013657600080fd5b61014c60048080359060200190919050506106ac565b604051808273ffffffffffffffffffffffffffffffffffffffff1673ffffffffffffffffffffffffffffffffffffffff16815260200191505060405180910390f35b341561019957600080fd5b6101af60048080359060200190919050506106eb565b604051808215151515815260200191505060405180910390f35b34156101d457600080fd5b6101dc61071e565b005b34156101e957600080fd5b6101f161077a565b604051808273ffffffffffffffffffffffffffffffffffffffff1673ffffffffffffffffffffffffffffffffffffffff16815260200191505060405180910390f35b341561023e57600080fd5b61026a600480803573ffffffffffffffffffffffffffffffffffffffff169060200190919050506107a0565b005b341561027757600080fd5b61027f6108ea565b604051808273ffffffffffffffffffffffffffffffffffffffff1673ffffffffffffffffffffffffffffffffffffffff16815260200191505060405180910390f35b34156102cc57600080fd5b6102d4610910565b6040518082815260200191505060405180910390f35b34156102f557600080fd5b6102fd610916565b005b341561030a57600080fd5b6103126109a7565b604051808273ffffffffffffffffffffffffffffffffffffffff1673ffffffffffffffffffffffffffffffffffffffff16815260200191505060405180910390f35b61035c6109cd565b6040518082815260200191505060405180910390f35b341561037d57600080fd5b610385610af0565b6040518082815260200191505060405180910390f35b34156103a657600080fd5b6103ae610af6565b6040518082815260200191505060405180910390f35b34156103cf57600080fd5b6103e56004808035906020019091905050610afc565b604051808273ffffffffffffffffffffffffffffffffffffffff1673ffffffffffffffffffffffffffffffffffffffff16815260200191505060405180910390f35b341561043257600080fd5b61043a610b3b565b604051808215151515815260200191505060405180910390f35b341561045f57600080fd5b610467610e13565b604051808273ffffffffffffffffffffffffffffffffffffffff1673ffffffffffffffffffffffffffffffffffffffff16815260200191505060405180910390f35b34156104b457600080fd5b6104e9600480803590602001909190803573ffffffffffffffffffffffffffffffffffffffff16906020019091905050610e39565b005b601660009054906101000a900473ffffffffffffffffffffffffffffffffffffffff1673ffffffffffffffffffffffffffffffffffffffff163373ffffffffffffffffffffffffffffffffffffffff1614151561054757600080fd5b601760009054906101000a900473ffffffffffffffffffffffffffffffffffffffff1673ffffffffffffffffffffffffffffffffffffffff1660405180807f7265736f6c766528290000000000000000000000000000000000000000000000815250600901905060405180910390207c010000000000000000000000000000000000000000000000000000000090046040518163ffffffff167c01000000000000000000000000000000000000000000000000000000000281526004016000604051808303818661646e5a03f49250505050565b6000601660009054906101000a900473ffffffffffffffffffffffffffffffffffffffff1673ffffffffffffffffffffffffffffffffffffffff1614151561066257600080fd5b4260128190555033601660006101000a81548173ffffffffffffffffffffffffffffffffffffffff021916908373ffffffffffffffffffffffffffffffffffffffff160217905550565b6014818154811015156106bb57fe5b90600052602060002090016000915054906101000a900473ffffffffffffffffffffffffffffffffffffffff1681565b6013818154811015156106fa57fe5b9060005260206000209060209182820401919006915054906101000a900460ff1681565b600460009054906101000a900473ffffffffffffffffffffffffffffffffffffffff1673ffffffffffffffffffffffffffffffffffffffff1666038d7ea4c6800060405160006040518083038185876187965a03f19250505050565b601060009054906101000a900473ffffffffffffffffffffffffffffffffffffffff1681565b60008060009150600090505b601480549050811015610839578273ffffffffffffffffffffffffffffffffffffffff166014828154811015156107df57fe5b906000526020600020900160009054906101000a900473ffffffffffffffffffffffffffffffffffffffff1673ffffffffffffffffffffffffffffffffffffffff16141561082c57600191505b80806001019150506107ac565b8115156108e55782600f60006101000a81548173ffffffffffffffffffffffffffffffffffffffff021916908373ffffffffffffffffffffffffffffffffffffffff1602179055506014805480600101828161089591906111e4565b9160005260206000209001600085909190916101000a81548173ffffffffffffffffffffffffffffffffffffffff021916908373ffffffffffffffffffffffffffffffffffffffff160217905550505b505050565b600f60009054906101000a900473ffffffffffffffffffffffffffffffffffffffff1681565b600d5481565b6000601660009054906101000a900473ffffffffffffffffffffffffffffffffffffffff1673ffffffffffffffffffffffffffffffffffffffff1614151561095d57600080fd5b4260068190555033600a60006101000a81548173ffffffffffffffffffffffffffffffffffffffff021916908373ffffffffffffffffffffffffffffffffffffffff160217905550565b601160009054906101000a900473ffffffffffffffffffffffffffffffffffffffff1681565b600042601281905550601560009054906101000a900473ffffffffffffffffffffffffffffffffffffffff1673ffffffffffffffffffffffffffffffffffffffff166366077c01336000604051602001526040518263ffffffff167c0100000000000000000000000000000000000000000000000000000000028152600401808273ffffffffffffffffffffffffffffffffffffffff1673ffffffffffffffffffffffffffffffffffffffff168152602001915050602060405180830381600087803b1515610a9b57600080fd5b6102c65a03f11515610aac57600080fd5b505050604051805190501515610ac157600080fd5b662386f26fc1000034111515610ad357fe5b3073ffffffffffffffffffffffffffffffffffffffff1631905090565b60125481565b600c5481565b600e81815481101515610b0b57fe5b90600052602060002090016000915054906101000a900473ffffffffffffffffffffffffffffffffffffffff1681565b60008060008091503373ffffffffffffffffffffffffffffffffffffffff16601060009054906101000a900473ffffffffffffffffffffffffffffffffffffffff1673ffffffffffffffffffffffffffffffffffffffff161415610b9e57600191505b600090505b600e80549050811015610c34573373ffffffffffffffffffffffffffffffffffffffff16600e82815481101515610bd657fe5b906000526020600020900160009054906101000a900473ffffffffffffffffffffffffffffffffffffffff1673ffffffffffffffffffffffffffffffffffffffff161415610c275760019150610c34565b8080600101915050610ba3565b811515610c4057600080fd5b600c5442111515610c5057600080fd5b600f60009054906101000a900473ffffffffffffffffffffffffffffffffffffffff1673ffffffffffffffffffffffffffffffffffffffff1660405180807f6f62736572766528290000000000000000000000000000000000000000000000815250600901905060405180910390207c010000000000000000000000000000000000000000000000000000000090046040518163ffffffff167c010000000000000000000000000000000000000000000000000000000002815260040160006040518083038160008761646e5a03f1925050501515610d2b57fe5b601760009054906101000a900473ffffffffffffffffffffffffffffffffffffffff1673ffffffffffffffffffffffffffffffffffffffff1660405180807f6261736963576974686472617728290000000000000000000000000000000000815250600f01905060405180910390207c010000000000000000000000000000000000000000000000000000000090046040518163ffffffff167c01000000000000000000000000000000000000000000000000000000000281526004016000604051808303818661646e5a03f49250505050600d54600c5401600c8190555060019250505090565b601560009054906101000a900473ffffffffffffffffffffffffffffffffffffffff1681565b600080600091503373ffffffffffffffffffffffffffffffffffffffff16601060009054906101000a900473ffffffffffffffffffffffffffffffffffffffff1673ffffffffffffffffffffffffffffffffffffffff161415610e9b57600191505b600090505b600e80549050811015610f31573373ffffffffffffffffffffffffffffffffffffffff16600e82815481101515610ed357fe5b906000526020600020900160009054906101000a900473ffffffffffffffffffffffffffffffffffffffff1673ffffffffffffffffffffffffffffffffffffffff161415610f245760019150610f31565b8080600101915050610ea0565b811515610f3d57600080fd5b600e8054905084101515610f5057600080fd5b600e84815481101515610f5f57fe5b906000526020600020900160009054906101000a900473ffffffffffffffffffffffffffffffffffffffff1673ffffffffffffffffffffffffffffffffffffffff163373ffffffffffffffffffffffffffffffffffffffff16141515610fc457600080fd5b601160009054906101000a900473ffffffffffffffffffffffffffffffffffffffff1673ffffffffffffffffffffffffffffffffffffffff168373ffffffffffffffffffffffffffffffffffffffff161415156110655761102361111e565b82601160006101000a81548173ffffffffffffffffffffffffffffffffffffffff021916908373ffffffffffffffffffffffffffffffffffffffff1602179055505b600160138581548110151561107657fe5b90600052602060002090602091828204019190066101000a81548160ff0219169083151502179055506110a761117b565b1561111857601160009054906101000a900473ffffffffffffffffffffffffffffffffffffffff16601060006101000a81548173ffffffffffffffffffffffffffffffffffffffff021916908373ffffffffffffffffffffffffffffffffffffffff16021790555061111761111e565b5b50505050565b60008090505b60138054905081101561117857600060138281548110151561114257fe5b90600052602060002090602091828204019190066101000a81548160ff0219169083151502179055508080600101915050611124565b50565b600080600090505b6013805490508110156111db5760138181548110151561119f57fe5b90600052602060002090602091828204019190069054906101000a900460ff1615156111ce57600091506111e0565b8080600101915050611183565b600191505b5090565b81548183558181151161120b5781836000526020600020918201910161120a9190611210565b5b505050565b61123291905b8082111561122e576000816000905550600101611216565b5090565b905600a165627a7a72305820455fac5c669944d0ca240e67149ece44f49e4f45029adda24efef5ee22f3840b0029",
  "source": "pragma solidity ^0.4.17;\n\nimport './GamerVerifier.sol';\nimport './CommonWalletLibrary.sol';\n\ncontract TimeDelayedVault is CommonWalletLibrary {\n    uint  public nextWithdrawTime;\n    uint  public withdrawCoolDownTime;\n    address[] public authorizedUsers;\n    address public withdrawObserver;\n    address public additionalAuthorizedContract;\n    address public proposedAAA;\n    uint public lastUpdated;\n    bool[] public votes;\n    address [] public observerHistory;\n    GamerVerifier public g = GamerVerifier(0x0);\n    address owner;\n    address walletLibrary;\n\n    function TimeDelayedVault(address libAddress) recordAction {\n        nextWithdrawTime = now;\n        withdrawCoolDownTime = 30 minutes;\n        walletLibrary = libAddress;\n        address(this).call(bytes4(sha3(\"initializeVault()\")));\n        // Please note, the following code chunk is different for each group, all group members are added to authorizedUsers array\n        // authorizedUsers.push(xxxxxxxxxx);\n        for (uint i = 0; i < authorizedUsers.length; i++) {\n            votes.push(false);\n        }\n    }\n\n    modifier onlyAuthorized() {\n        bool pass = false;\n        if (additionalAuthorizedContract == msg.sender) {\n            pass = true;\n        }\n\n        for (uint i = 0; i < authorizedUsers.length; i++) {\n            if (authorizedUsers [i] == msg.sender) {\n                pass = true;\n                break;\n            }\n        }\n        require(pass);\n        _;\n    }\n\n    modifier onlyOnce() {\n        require(owner == 0x0);\n        _;\n    }\n\n    modifier onlyOwner() {\n        require(msg.sender == owner);\n        _;\n    }\n\n    modifier recordAction() {\n        lastUpdated = now;\n        _;\n    }\n\n    function setObserver(address ob) {\n        bool duplicate = false;\n        for (uint i = 0; i < observerHistory.length; i++) {\n            if (observerHistory[i] == ob) {\n                duplicate = true;\n            }\n        }\n\n        if (!duplicate) {\n            withdrawObserver = ob;\n            observerHistory.push(ob);\n        }\n    }\n\n    function addToReserve() payable recordAction external returns (uint) {\n        require(g.isValidGamer(msg.sender));\n        assert(msg.value > 0.01 ether);\n        return this.balance;\n    }\n\n\n    function withdrawFund() onlyAuthorized external returns (bool) {\n        require(now > nextWithdrawTime);\n        assert(withdrawObserver.call(bytes4(sha3(\"observe()\"))));\n        walletLibrary.delegatecall(bytes4(sha3(\"basicWithdraw()\")));\n        nextWithdrawTime = nextWithdrawTime + withdrawCoolDownTime;\n        return true;\n    }\n\n    function checkAllVote() private returns (bool) {\n        for (uint i = 0; i < votes.length; i++) {\n            if (!votes[i]) {\n                return false;\n            }\n        }\n\n        return true;\n    }\n\n    function clearVote() private {\n        for (uint i = 0; i < votes.length; i++) {\n            votes[i] = false;\n        }\n    }\n\n    function addAuthorizedAccount(uint votePosition, address proposal) onlyAuthorized external {\n        require(votePosition < authorizedUsers.length);\n        require(msg.sender == authorizedUsers[votePosition]);\n        if (proposal != proposedAAA) {\n            clearVote();\n            proposedAAA = proposal;\n        }\n\n        votes[votePosition] = true;\n        if (checkAllVote()) {\n            additionalAuthorizedContract = proposedAAA;\n            clearVote();\n        }\n    }\n\n    function resolve() onlyOwner {\n        walletLibrary.delegatecall(bytes4(sha3(\"resolve()\")));\n    }\n\n    function initilizeVault() onlyOnce {\n        lastUpdated = now;\n        owner = msg.sender;\n    }\n}",
  "sourcePath": "/opt/src/lesson-7/contracts/TimeDelayedVault.sol",
  "compiler": {
    "name": "solc",
    "version": "0.4.19+commit.c4cbbb05.Emscripten.clang"
  },
  "schemaVersion": "2.0.0",
  "updatedAt": "2018-04-04T10:12:05.991Z"
}